{
	"contracts/TokenSwap.sol": {
		"TokenSwap": {
			"abi": [
				{
					"inputs": [
						{
							"internalType": "address",
							"name": "_usdtAddress",
							"type": "address"
						},
						{
							"internalType": "address",
							"name": "_xtkAddress",
							"type": "address"
						}
					],
					"stateMutability": "nonpayable",
					"type": "constructor"
				},
				{
					"inputs": [
						{
							"internalType": "uint256",
							"name": "xtkAmount",
							"type": "uint256"
						}
					],
					"name": "calculateUSDTAmount",
					"outputs": [
						{
							"internalType": "uint256",
							"name": "",
							"type": "uint256"
						}
					],
					"stateMutability": "pure",
					"type": "function"
				},
				{
					"inputs": [
						{
							"internalType": "uint256",
							"name": "usdtAmount",
							"type": "uint256"
						}
					],
					"name": "calculateXTKAmount",
					"outputs": [
						{
							"internalType": "uint256",
							"name": "",
							"type": "uint256"
						}
					],
					"stateMutability": "pure",
					"type": "function"
				},
				{
					"inputs": [
						{
							"internalType": "uint256",
							"name": "usdtAmount",
							"type": "uint256"
						}
					],
					"name": "swapUSDTtoXTK",
					"outputs": [],
					"stateMutability": "nonpayable",
					"type": "function"
				},
				{
					"inputs": [
						{
							"internalType": "uint256",
							"name": "xtkAmount",
							"type": "uint256"
						}
					],
					"name": "swapXTKtoUSDT",
					"outputs": [],
					"stateMutability": "nonpayable",
					"type": "function"
				},
				{
					"inputs": [],
					"name": "usdtAddress",
					"outputs": [
						{
							"internalType": "address",
							"name": "",
							"type": "address"
						}
					],
					"stateMutability": "view",
					"type": "function"
				},
				{
					"inputs": [],
					"name": "xtkAddress",
					"outputs": [
						{
							"internalType": "address",
							"name": "",
							"type": "address"
						}
					],
					"stateMutability": "view",
					"type": "function"
				}
			],
			"devdoc": {
				"kind": "dev",
				"methods": {},
				"version": 1
			},
			"evm": {
				"assembly": "    /* \"contracts/TokenSwap.sol\":188:2459  contract TokenSwap {... */\n  mstore(0x40, 0x80)\n    /* \"contracts/TokenSwap.sol\":398:530  constructor(address _usdtAddress, address _xtkAddress) {... */\n  callvalue\n  dup1\n  iszero\n  tag_1\n  jumpi\n  0x00\n  dup1\n  revert\ntag_1:\n  pop\n  mload(0x40)\n  sub(codesize, bytecodeSize)\n  dup1\n  bytecodeSize\n  dup4\n  codecopy\n  dup2\n  dup2\n  add\n  0x40\n  mstore\n  dup2\n  add\n  swap1\n  tag_2\n  swap2\n  swap1\n  tag_3\n  jump\t// in\ntag_2:\n    /* \"contracts/TokenSwap.sol\":477:489  _usdtAddress */\n  dup2\n    /* \"contracts/TokenSwap.sol\":463:474  usdtAddress */\n  0x00\n  dup1\n    /* \"contracts/TokenSwap.sol\":463:489  usdtAddress = _usdtAddress */\n  0x0100\n  exp\n  dup2\n  sload\n  dup2\n  0xffffffffffffffffffffffffffffffffffffffff\n  mul\n  not\n  and\n  swap1\n  dup4\n  0xffffffffffffffffffffffffffffffffffffffff\n  and\n  mul\n  or\n  swap1\n  sstore\n  pop\n    /* \"contracts/TokenSwap.sol\":512:523  _xtkAddress */\n  dup1\n    /* \"contracts/TokenSwap.sol\":499:509  xtkAddress */\n  0x01\n  0x00\n    /* \"contracts/TokenSwap.sol\":499:523  xtkAddress = _xtkAddress */\n  0x0100\n  exp\n  dup2\n  sload\n  dup2\n  0xffffffffffffffffffffffffffffffffffffffff\n  mul\n  not\n  and\n  swap1\n  dup4\n  0xffffffffffffffffffffffffffffffffffffffff\n  and\n  mul\n  or\n  swap1\n  sstore\n  pop\n    /* \"contracts/TokenSwap.sol\":398:530  constructor(address _usdtAddress, address _xtkAddress) {... */\n  pop\n  pop\n    /* \"contracts/TokenSwap.sol\":188:2459  contract TokenSwap {... */\n  jump(tag_6)\n    /* \"#utility.yul\":88:205   */\ntag_8:\n    /* \"#utility.yul\":197:198   */\n  0x00\n    /* \"#utility.yul\":194:195   */\n  dup1\n    /* \"#utility.yul\":187:199   */\n  revert\n    /* \"#utility.yul\":334:460   */\ntag_10:\n    /* \"#utility.yul\":371:378   */\n  0x00\n    /* \"#utility.yul\":411:453   */\n  0xffffffffffffffffffffffffffffffffffffffff\n    /* \"#utility.yul\":404:409   */\n  dup3\n    /* \"#utility.yul\":400:454   */\n  and\n    /* \"#utility.yul\":389:454   */\n  swap1\n  pop\n    /* \"#utility.yul\":334:460   */\n  swap2\n  swap1\n  pop\n  jump\t// out\n    /* \"#utility.yul\":466:562   */\ntag_11:\n    /* \"#utility.yul\":503:510   */\n  0x00\n    /* \"#utility.yul\":532:556   */\n  tag_20\n    /* \"#utility.yul\":550:555   */\n  dup3\n    /* \"#utility.yul\":532:556   */\n  tag_10\n  jump\t// in\ntag_20:\n    /* \"#utility.yul\":521:556   */\n  swap1\n  pop\n    /* \"#utility.yul\":466:562   */\n  swap2\n  swap1\n  pop\n  jump\t// out\n    /* \"#utility.yul\":568:690   */\ntag_12:\n    /* \"#utility.yul\":641:665   */\n  tag_22\n    /* \"#utility.yul\":659:664   */\n  dup2\n    /* \"#utility.yul\":641:665   */\n  tag_11\n  jump\t// in\ntag_22:\n    /* \"#utility.yul\":634:639   */\n  dup2\n    /* \"#utility.yul\":631:666   */\n  eq\n    /* \"#utility.yul\":621:684   */\n  tag_23\n  jumpi\n    /* \"#utility.yul\":680:681   */\n  0x00\n    /* \"#utility.yul\":677:678   */\n  dup1\n    /* \"#utility.yul\":670:682   */\n  revert\n    /* \"#utility.yul\":621:684   */\ntag_23:\n    /* \"#utility.yul\":568:690   */\n  pop\n  jump\t// out\n    /* \"#utility.yul\":696:839   */\ntag_13:\n    /* \"#utility.yul\":753:758   */\n  0x00\n    /* \"#utility.yul\":784:790   */\n  dup2\n    /* \"#utility.yul\":778:791   */\n  mload\n    /* \"#utility.yul\":769:791   */\n  swap1\n  pop\n    /* \"#utility.yul\":800:833   */\n  tag_25\n    /* \"#utility.yul\":827:832   */\n  dup2\n    /* \"#utility.yul\":800:833   */\n  tag_12\n  jump\t// in\ntag_25:\n    /* \"#utility.yul\":696:839   */\n  swap3\n  swap2\n  pop\n  pop\n  jump\t// out\n    /* \"#utility.yul\":845:1352   */\ntag_3:\n    /* \"#utility.yul\":924:930   */\n  0x00\n    /* \"#utility.yul\":932:938   */\n  dup1\n    /* \"#utility.yul\":981:983   */\n  0x40\n    /* \"#utility.yul\":969:978   */\n  dup4\n    /* \"#utility.yul\":960:967   */\n  dup6\n    /* \"#utility.yul\":956:979   */\n  sub\n    /* \"#utility.yul\":952:984   */\n  slt\n    /* \"#utility.yul\":949:1068   */\n  iszero\n  tag_27\n  jumpi\n    /* \"#utility.yul\":987:1066   */\n  tag_28\n  tag_8\n  jump\t// in\ntag_28:\n    /* \"#utility.yul\":949:1068   */\ntag_27:\n    /* \"#utility.yul\":1107:1108   */\n  0x00\n    /* \"#utility.yul\":1132:1196   */\n  tag_29\n    /* \"#utility.yul\":1188:1195   */\n  dup6\n    /* \"#utility.yul\":1179:1185   */\n  dup3\n    /* \"#utility.yul\":1168:1177   */\n  dup7\n    /* \"#utility.yul\":1164:1186   */\n  add\n    /* \"#utility.yul\":1132:1196   */\n  tag_13\n  jump\t// in\ntag_29:\n    /* \"#utility.yul\":1122:1196   */\n  swap3\n  pop\n    /* \"#utility.yul\":1078:1206   */\n  pop\n    /* \"#utility.yul\":1245:1247   */\n  0x20\n    /* \"#utility.yul\":1271:1335   */\n  tag_30\n    /* \"#utility.yul\":1327:1334   */\n  dup6\n    /* \"#utility.yul\":1318:1324   */\n  dup3\n    /* \"#utility.yul\":1307:1316   */\n  dup7\n    /* \"#utility.yul\":1303:1325   */\n  add\n    /* \"#utility.yul\":1271:1335   */\n  tag_13\n  jump\t// in\ntag_30:\n    /* \"#utility.yul\":1261:1335   */\n  swap2\n  pop\n    /* \"#utility.yul\":1216:1345   */\n  pop\n    /* \"#utility.yul\":845:1352   */\n  swap3\n  pop\n  swap3\n  swap1\n  pop\n  jump\t// out\n    /* \"contracts/TokenSwap.sol\":188:2459  contract TokenSwap {... */\ntag_6:\n  dataSize(sub_0)\n  dup1\n  dataOffset(sub_0)\n  0x00\n  codecopy\n  0x00\n  return\nstop\n\nsub_0: assembly {\n        /* \"contracts/TokenSwap.sol\":188:2459  contract TokenSwap {... */\n      mstore(0x40, 0x80)\n      callvalue\n      dup1\n      iszero\n      tag_1\n      jumpi\n      0x00\n      dup1\n      revert\n    tag_1:\n      pop\n      jumpi(tag_2, lt(calldatasize, 0x04))\n      shr(0xe0, calldataload(0x00))\n      dup1\n      0x5657dc7e\n      eq\n      tag_3\n      jumpi\n      dup1\n      0x59cef5c1\n      eq\n      tag_4\n      jumpi\n      dup1\n      0x5f48ab5a\n      eq\n      tag_5\n      jumpi\n      dup1\n      0x6c559dd8\n      eq\n      tag_6\n      jumpi\n      dup1\n      0x9ab4a445\n      eq\n      tag_7\n      jumpi\n      dup1\n      0xfe08cc88\n      eq\n      tag_8\n      jumpi\n    tag_2:\n      0x00\n      dup1\n      revert\n        /* \"contracts/TokenSwap.sol\":1530:1773  function calculateXTKAmount(uint256 usdtAmount)... */\n    tag_3:\n      tag_9\n      0x04\n      dup1\n      calldatasize\n      sub\n      dup2\n      add\n      swap1\n      tag_10\n      swap2\n      swap1\n      tag_11\n      jump\t// in\n    tag_10:\n      tag_12\n      jump\t// in\n    tag_9:\n      mload(0x40)\n      tag_13\n      swap2\n      swap1\n      tag_14\n      jump\t// in\n    tag_13:\n      mload(0x40)\n      dup1\n      swap2\n      sub\n      swap1\n      return\n        /* \"contracts/TokenSwap.sol\":266:291  address public xtkAddress */\n    tag_4:\n      tag_15\n      tag_16\n      jump\t// in\n    tag_15:\n      mload(0x40)\n      tag_17\n      swap2\n      swap1\n      tag_18\n      jump\t// in\n    tag_17:\n      mload(0x40)\n      dup1\n      swap2\n      sub\n      swap1\n      return\n        /* \"contracts/TokenSwap.sol\":1822:2037  function calculateUSDTAmount(uint256 xtkAmount)... */\n    tag_5:\n      tag_19\n      0x04\n      dup1\n      calldatasize\n      sub\n      dup2\n      add\n      swap1\n      tag_20\n      swap2\n      swap1\n      tag_11\n      jump\t// in\n    tag_20:\n      tag_21\n      jump\t// in\n    tag_19:\n      mload(0x40)\n      tag_22\n      swap2\n      swap1\n      tag_14\n      jump\t// in\n    tag_22:\n      mload(0x40)\n      dup1\n      swap2\n      sub\n      swap1\n      return\n        /* \"contracts/TokenSwap.sol\":1042:1481  function swapXTKtoUSDT(uint256 xtkAmount) external {... */\n    tag_6:\n      tag_23\n      0x04\n      dup1\n      calldatasize\n      sub\n      dup2\n      add\n      swap1\n      tag_24\n      swap2\n      swap1\n      tag_11\n      jump\t// in\n    tag_24:\n      tag_25\n      jump\t// in\n    tag_23:\n      stop\n        /* \"contracts/TokenSwap.sol\":213:239  address public usdtAddress */\n    tag_7:\n      tag_26\n      tag_27\n      jump\t// in\n    tag_26:\n      mload(0x40)\n      tag_28\n      swap2\n      swap1\n      tag_18\n      jump\t// in\n    tag_28:\n      mload(0x40)\n      dup1\n      swap2\n      sub\n      swap1\n      return\n        /* \"contracts/TokenSwap.sol\":566:1006  function swapUSDTtoXTK(uint256 usdtAmount) external {... */\n    tag_8:\n      tag_29\n      0x04\n      dup1\n      calldatasize\n      sub\n      dup2\n      add\n      swap1\n      tag_30\n      swap2\n      swap1\n      tag_11\n      jump\t// in\n    tag_30:\n      tag_31\n      jump\t// in\n    tag_29:\n      stop\n        /* \"contracts/TokenSwap.sol\":1530:1773  function calculateXTKAmount(uint256 usdtAmount)... */\n    tag_12:\n        /* \"contracts/TokenSwap.sol\":1623:1630  uint256 */\n      0x00\n        /* \"contracts/TokenSwap.sol\":1745:1766  pow(usdtAmount, 3, 4) */\n      tag_33\n        /* \"contracts/TokenSwap.sol\":1749:1759  usdtAmount */\n      dup3\n        /* \"contracts/TokenSwap.sol\":1761:1762  3 */\n      0x03\n        /* \"contracts/TokenSwap.sol\":1764:1765  4 */\n      0x04\n        /* \"contracts/TokenSwap.sol\":1745:1748  pow */\n      tag_34\n        /* \"contracts/TokenSwap.sol\":1745:1766  pow(usdtAmount, 3, 4) */\n      jump\t// in\n    tag_33:\n        /* \"contracts/TokenSwap.sol\":1738:1766  return pow(usdtAmount, 3, 4) */\n      swap1\n      pop\n        /* \"contracts/TokenSwap.sol\":1530:1773  function calculateXTKAmount(uint256 usdtAmount)... */\n      swap2\n      swap1\n      pop\n      jump\t// out\n        /* \"contracts/TokenSwap.sol\":266:291  address public xtkAddress */\n    tag_16:\n      0x01\n      0x00\n      swap1\n      sload\n      swap1\n      0x0100\n      exp\n      swap1\n      div\n      0xffffffffffffffffffffffffffffffffffffffff\n      and\n      dup2\n      jump\t// out\n        /* \"contracts/TokenSwap.sol\":1822:2037  function calculateUSDTAmount(uint256 xtkAmount)... */\n    tag_21:\n        /* \"contracts/TokenSwap.sol\":1915:1922  uint256 */\n      0x00\n        /* \"contracts/TokenSwap.sol\":2010:2030  pow(xtkAmount, 4, 3) */\n      tag_36\n        /* \"contracts/TokenSwap.sol\":2014:2023  xtkAmount */\n      dup3\n        /* \"contracts/TokenSwap.sol\":2025:2026  4 */\n      0x04\n        /* \"contracts/TokenSwap.sol\":2028:2029  3 */\n      0x03\n        /* \"contracts/TokenSwap.sol\":2010:2013  pow */\n      tag_34\n        /* \"contracts/TokenSwap.sol\":2010:2030  pow(xtkAmount, 4, 3) */\n      jump\t// in\n    tag_36:\n        /* \"contracts/TokenSwap.sol\":2003:2030  return pow(xtkAmount, 4, 3) */\n      swap1\n      pop\n        /* \"contracts/TokenSwap.sol\":1822:2037  function calculateUSDTAmount(uint256 xtkAmount)... */\n      swap2\n      swap1\n      pop\n      jump\t// out\n        /* \"contracts/TokenSwap.sol\":1042:1481  function swapXTKtoUSDT(uint256 xtkAmount) external {... */\n    tag_25:\n        /* \"contracts/TokenSwap.sol\":1123:1124  0 */\n      0x00\n        /* \"contracts/TokenSwap.sol\":1111:1120  xtkAmount */\n      dup2\n        /* \"contracts/TokenSwap.sol\":1111:1124  xtkAmount > 0 */\n      gt\n        /* \"contracts/TokenSwap.sol\":1103:1162  require(xtkAmount > 0, \"XTK amount must be greater than 0\") */\n      tag_38\n      jumpi\n      mload(0x40)\n      0x08c379a000000000000000000000000000000000000000000000000000000000\n      dup2\n      mstore\n      0x04\n      add\n      tag_39\n      swap1\n      tag_40\n      jump\t// in\n    tag_39:\n      mload(0x40)\n      dup1\n      swap2\n      sub\n      swap1\n      revert\n    tag_38:\n        /* \"contracts/TokenSwap.sol\":1221:1239  uint256 usdtAmount */\n      0x00\n        /* \"contracts/TokenSwap.sol\":1242:1272  calculateUSDTAmount(xtkAmount) */\n      tag_41\n        /* \"contracts/TokenSwap.sol\":1262:1271  xtkAmount */\n      dup3\n        /* \"contracts/TokenSwap.sol\":1242:1261  calculateUSDTAmount */\n      tag_21\n        /* \"contracts/TokenSwap.sol\":1242:1272  calculateUSDTAmount(xtkAmount) */\n      jump\t// in\n    tag_41:\n        /* \"contracts/TokenSwap.sol\":1221:1272  uint256 usdtAmount = calculateUSDTAmount(xtkAmount) */\n      swap1\n      pop\n        /* \"contracts/TokenSwap.sol\":1319:1329  xtkAddress */\n      0x01\n      0x00\n      swap1\n      sload\n      swap1\n      0x0100\n      exp\n      swap1\n      div\n      0xffffffffffffffffffffffffffffffffffffffff\n      and\n        /* \"contracts/TokenSwap.sol\":1312:1343  IERC20(xtkAddress).transferFrom */\n      0xffffffffffffffffffffffffffffffffffffffff\n      and\n      0x23b872dd\n        /* \"contracts/TokenSwap.sol\":1344:1354  msg.sender */\n      caller\n        /* \"contracts/TokenSwap.sol\":1364:1368  this */\n      address\n        /* \"contracts/TokenSwap.sol\":1371:1380  xtkAmount */\n      dup6\n        /* \"contracts/TokenSwap.sol\":1312:1381  IERC20(xtkAddress).transferFrom(msg.sender, address(this), xtkAmount) */\n      mload(0x40)\n      dup5\n      0xffffffff\n      and\n      0xe0\n      shl\n      dup2\n      mstore\n      0x04\n      add\n      tag_42\n      swap4\n      swap3\n      swap2\n      swap1\n      tag_43\n      jump\t// in\n    tag_42:\n      0x20\n      mload(0x40)\n      dup1\n      dup4\n      sub\n      dup2\n      0x00\n      dup8\n      gas\n      call\n      iszero\n      dup1\n      iszero\n      tag_45\n      jumpi\n      returndatasize\n      0x00\n      dup1\n      returndatacopy\n      revert(0x00, returndatasize)\n    tag_45:\n      pop\n      pop\n      pop\n      pop\n      mload(0x40)\n      returndatasize\n      not(0x1f)\n      0x1f\n      dup3\n      add\n      and\n      dup3\n      add\n      dup1\n      0x40\n      mstore\n      pop\n      dup2\n      add\n      swap1\n      tag_46\n      swap2\n      swap1\n      tag_47\n      jump\t// in\n    tag_46:\n      pop\n        /* \"contracts/TokenSwap.sol\":1429:1440  usdtAddress */\n      0x00\n      dup1\n      sload\n      swap1\n      0x0100\n      exp\n      swap1\n      div\n      0xffffffffffffffffffffffffffffffffffffffff\n      and\n        /* \"contracts/TokenSwap.sol\":1422:1450  IERC20(usdtAddress).transfer */\n      0xffffffffffffffffffffffffffffffffffffffff\n      and\n      0xa9059cbb\n        /* \"contracts/TokenSwap.sol\":1451:1461  msg.sender */\n      caller\n        /* \"contracts/TokenSwap.sol\":1463:1473  usdtAmount */\n      dup4\n        /* \"contracts/TokenSwap.sol\":1422:1474  IERC20(usdtAddress).transfer(msg.sender, usdtAmount) */\n      mload(0x40)\n      dup4\n      0xffffffff\n      and\n      0xe0\n      shl\n      dup2\n      mstore\n      0x04\n      add\n      tag_48\n      swap3\n      swap2\n      swap1\n      tag_49\n      jump\t// in\n    tag_48:\n      0x20\n      mload(0x40)\n      dup1\n      dup4\n      sub\n      dup2\n      0x00\n      dup8\n      gas\n      call\n      iszero\n      dup1\n      iszero\n      tag_51\n      jumpi\n      returndatasize\n      0x00\n      dup1\n      returndatacopy\n      revert(0x00, returndatasize)\n    tag_51:\n      pop\n      pop\n      pop\n      pop\n      mload(0x40)\n      returndatasize\n      not(0x1f)\n      0x1f\n      dup3\n      add\n      and\n      dup3\n      add\n      dup1\n      0x40\n      mstore\n      pop\n      dup2\n      add\n      swap1\n      tag_52\n      swap2\n      swap1\n      tag_47\n      jump\t// in\n    tag_52:\n      pop\n        /* \"contracts/TokenSwap.sol\":1093:1481  {... */\n      pop\n        /* \"contracts/TokenSwap.sol\":1042:1481  function swapXTKtoUSDT(uint256 xtkAmount) external {... */\n      pop\n      jump\t// out\n        /* \"contracts/TokenSwap.sol\":213:239  address public usdtAddress */\n    tag_27:\n      0x00\n      dup1\n      sload\n      swap1\n      0x0100\n      exp\n      swap1\n      div\n      0xffffffffffffffffffffffffffffffffffffffff\n      and\n      dup2\n      jump\t// out\n        /* \"contracts/TokenSwap.sol\":566:1006  function swapUSDTtoXTK(uint256 usdtAmount) external {... */\n    tag_31:\n        /* \"contracts/TokenSwap.sol\":649:650  0 */\n      0x00\n        /* \"contracts/TokenSwap.sol\":636:646  usdtAmount */\n      dup2\n        /* \"contracts/TokenSwap.sol\":636:650  usdtAmount > 0 */\n      gt\n        /* \"contracts/TokenSwap.sol\":628:689  require(usdtAmount > 0, \"USDT amount must be greater than 0\") */\n      tag_54\n      jumpi\n      mload(0x40)\n      0x08c379a000000000000000000000000000000000000000000000000000000000\n      dup2\n      mstore\n      0x04\n      add\n      tag_55\n      swap1\n      tag_56\n      jump\t// in\n    tag_55:\n      mload(0x40)\n      dup1\n      swap2\n      sub\n      swap1\n      revert\n    tag_54:\n        /* \"contracts/TokenSwap.sol\":747:764  uint256 xtkAmount */\n      0x00\n        /* \"contracts/TokenSwap.sol\":767:797  calculateXTKAmount(usdtAmount) */\n      tag_57\n        /* \"contracts/TokenSwap.sol\":786:796  usdtAmount */\n      dup3\n        /* \"contracts/TokenSwap.sol\":767:785  calculateXTKAmount */\n      tag_12\n        /* \"contracts/TokenSwap.sol\":767:797  calculateXTKAmount(usdtAmount) */\n      jump\t// in\n    tag_57:\n        /* \"contracts/TokenSwap.sol\":747:797  uint256 xtkAmount = calculateXTKAmount(usdtAmount) */\n      swap1\n      pop\n        /* \"contracts/TokenSwap.sol\":845:856  usdtAddress */\n      0x00\n      dup1\n      sload\n      swap1\n      0x0100\n      exp\n      swap1\n      div\n      0xffffffffffffffffffffffffffffffffffffffff\n      and\n        /* \"contracts/TokenSwap.sol\":838:870  IERC20(usdtAddress).transferFrom */\n      0xffffffffffffffffffffffffffffffffffffffff\n      and\n      0x23b872dd\n        /* \"contracts/TokenSwap.sol\":871:881  msg.sender */\n      caller\n        /* \"contracts/TokenSwap.sol\":891:895  this */\n      address\n        /* \"contracts/TokenSwap.sol\":898:908  usdtAmount */\n      dup6\n        /* \"contracts/TokenSwap.sol\":838:909  IERC20(usdtAddress).transferFrom(msg.sender, address(this), usdtAmount) */\n      mload(0x40)\n      dup5\n      0xffffffff\n      and\n      0xe0\n      shl\n      dup2\n      mstore\n      0x04\n      add\n      tag_58\n      swap4\n      swap3\n      swap2\n      swap1\n      tag_43\n      jump\t// in\n    tag_58:\n      0x20\n      mload(0x40)\n      dup1\n      dup4\n      sub\n      dup2\n      0x00\n      dup8\n      gas\n      call\n      iszero\n      dup1\n      iszero\n      tag_60\n      jumpi\n      returndatasize\n      0x00\n      dup1\n      returndatacopy\n      revert(0x00, returndatasize)\n    tag_60:\n      pop\n      pop\n      pop\n      pop\n      mload(0x40)\n      returndatasize\n      not(0x1f)\n      0x1f\n      dup3\n      add\n      and\n      dup3\n      add\n      dup1\n      0x40\n      mstore\n      pop\n      dup2\n      add\n      swap1\n      tag_61\n      swap2\n      swap1\n      tag_47\n      jump\t// in\n    tag_61:\n      pop\n        /* \"contracts/TokenSwap.sol\":956:966  xtkAddress */\n      0x01\n      0x00\n      swap1\n      sload\n      swap1\n      0x0100\n      exp\n      swap1\n      div\n      0xffffffffffffffffffffffffffffffffffffffff\n      and\n        /* \"contracts/TokenSwap.sol\":949:976  IERC20(xtkAddress).transfer */\n      0xffffffffffffffffffffffffffffffffffffffff\n      and\n      0xa9059cbb\n        /* \"contracts/TokenSwap.sol\":977:987  msg.sender */\n      caller\n        /* \"contracts/TokenSwap.sol\":989:998  xtkAmount */\n      dup4\n        /* \"contracts/TokenSwap.sol\":949:999  IERC20(xtkAddress).transfer(msg.sender, xtkAmount) */\n      mload(0x40)\n      dup4\n      0xffffffff\n      and\n      0xe0\n      shl\n      dup2\n      mstore\n      0x04\n      add\n      tag_62\n      swap3\n      swap2\n      swap1\n      tag_49\n      jump\t// in\n    tag_62:\n      0x20\n      mload(0x40)\n      dup1\n      dup4\n      sub\n      dup2\n      0x00\n      dup8\n      gas\n      call\n      iszero\n      dup1\n      iszero\n      tag_64\n      jumpi\n      returndatasize\n      0x00\n      dup1\n      returndatacopy\n      revert(0x00, returndatasize)\n    tag_64:\n      pop\n      pop\n      pop\n      pop\n      mload(0x40)\n      returndatasize\n      not(0x1f)\n      0x1f\n      dup3\n      add\n      and\n      dup3\n      add\n      dup1\n      0x40\n      mstore\n      pop\n      dup2\n      add\n      swap1\n      tag_65\n      swap2\n      swap1\n      tag_47\n      jump\t// in\n    tag_65:\n      pop\n        /* \"contracts/TokenSwap.sol\":618:1006  {... */\n      pop\n        /* \"contracts/TokenSwap.sol\":566:1006  function swapUSDTtoXTK(uint256 usdtAmount) external {... */\n      pop\n      jump\t// out\n        /* \"contracts/TokenSwap.sol\":2162:2457  function pow(... */\n    tag_34:\n        /* \"contracts/TokenSwap.sol\":2282:2289  uint256 */\n      0x00\n        /* \"contracts/TokenSwap.sol\":2437:2448  denominator */\n      dup2\n        /* \"contracts/TokenSwap.sol\":2425:2434  numerator */\n      dup4\n        /* \"contracts/TokenSwap.sol\":2425:2448  numerator - denominator */\n      tag_67\n      swap2\n      swap1\n      tag_68\n      jump\t// in\n    tag_67:\n        /* \"contracts/TokenSwap.sol\":355:359  1e18 */\n      0x0de0b6b3a7640000\n        /* \"contracts/TokenSwap.sol\":2413:2449  PRECISION**(numerator - denominator) */\n      tag_69\n      swap2\n      swap1\n      tag_70\n      jump\t// in\n    tag_69:\n        /* \"contracts/TokenSwap.sol\":2399:2408  numerator */\n      dup4\n        /* \"contracts/TokenSwap.sol\":2393:2397  base */\n      dup6\n        /* \"contracts/TokenSwap.sol\":2393:2408  base**numerator */\n      tag_71\n      swap2\n      swap1\n      tag_70\n      jump\t// in\n    tag_71:\n        /* \"contracts/TokenSwap.sol\":2392:2450  (base**numerator) / (PRECISION**(numerator - denominator)) */\n      tag_72\n      swap2\n      swap1\n      tag_73\n      jump\t// in\n    tag_72:\n        /* \"contracts/TokenSwap.sol\":2385:2450  return (base**numerator) / (PRECISION**(numerator - denominator)) */\n      swap1\n      pop\n        /* \"contracts/TokenSwap.sol\":2162:2457  function pow(... */\n      swap4\n      swap3\n      pop\n      pop\n      pop\n      jump\t// out\n        /* \"#utility.yul\":88:205   */\n    tag_75:\n        /* \"#utility.yul\":197:198   */\n      0x00\n        /* \"#utility.yul\":194:195   */\n      dup1\n        /* \"#utility.yul\":187:199   */\n      revert\n        /* \"#utility.yul\":334:411   */\n    tag_77:\n        /* \"#utility.yul\":371:378   */\n      0x00\n        /* \"#utility.yul\":400:405   */\n      dup2\n        /* \"#utility.yul\":389:405   */\n      swap1\n      pop\n        /* \"#utility.yul\":334:411   */\n      swap2\n      swap1\n      pop\n      jump\t// out\n        /* \"#utility.yul\":417:539   */\n    tag_78:\n        /* \"#utility.yul\":490:514   */\n      tag_103\n        /* \"#utility.yul\":508:513   */\n      dup2\n        /* \"#utility.yul\":490:514   */\n      tag_77\n      jump\t// in\n    tag_103:\n        /* \"#utility.yul\":483:488   */\n      dup2\n        /* \"#utility.yul\":480:515   */\n      eq\n        /* \"#utility.yul\":470:533   */\n      tag_104\n      jumpi\n        /* \"#utility.yul\":529:530   */\n      0x00\n        /* \"#utility.yul\":526:527   */\n      dup1\n        /* \"#utility.yul\":519:531   */\n      revert\n        /* \"#utility.yul\":470:533   */\n    tag_104:\n        /* \"#utility.yul\":417:539   */\n      pop\n      jump\t// out\n        /* \"#utility.yul\":545:684   */\n    tag_79:\n        /* \"#utility.yul\":591:596   */\n      0x00\n        /* \"#utility.yul\":629:635   */\n      dup2\n        /* \"#utility.yul\":616:636   */\n      calldataload\n        /* \"#utility.yul\":607:636   */\n      swap1\n      pop\n        /* \"#utility.yul\":645:678   */\n      tag_106\n        /* \"#utility.yul\":672:677   */\n      dup2\n        /* \"#utility.yul\":645:678   */\n      tag_78\n      jump\t// in\n    tag_106:\n        /* \"#utility.yul\":545:684   */\n      swap3\n      swap2\n      pop\n      pop\n      jump\t// out\n        /* \"#utility.yul\":690:1019   */\n    tag_11:\n        /* \"#utility.yul\":749:755   */\n      0x00\n        /* \"#utility.yul\":798:800   */\n      0x20\n        /* \"#utility.yul\":786:795   */\n      dup3\n        /* \"#utility.yul\":777:784   */\n      dup5\n        /* \"#utility.yul\":773:796   */\n      sub\n        /* \"#utility.yul\":769:801   */\n      slt\n        /* \"#utility.yul\":766:885   */\n      iszero\n      tag_108\n      jumpi\n        /* \"#utility.yul\":804:883   */\n      tag_109\n      tag_75\n      jump\t// in\n    tag_109:\n        /* \"#utility.yul\":766:885   */\n    tag_108:\n        /* \"#utility.yul\":924:925   */\n      0x00\n        /* \"#utility.yul\":949:1002   */\n      tag_110\n        /* \"#utility.yul\":994:1001   */\n      dup5\n        /* \"#utility.yul\":985:991   */\n      dup3\n        /* \"#utility.yul\":974:983   */\n      dup6\n        /* \"#utility.yul\":970:992   */\n      add\n        /* \"#utility.yul\":949:1002   */\n      tag_79\n      jump\t// in\n    tag_110:\n        /* \"#utility.yul\":939:1002   */\n      swap2\n      pop\n        /* \"#utility.yul\":895:1012   */\n      pop\n        /* \"#utility.yul\":690:1019   */\n      swap3\n      swap2\n      pop\n      pop\n      jump\t// out\n        /* \"#utility.yul\":1025:1143   */\n    tag_80:\n        /* \"#utility.yul\":1112:1136   */\n      tag_112\n        /* \"#utility.yul\":1130:1135   */\n      dup2\n        /* \"#utility.yul\":1112:1136   */\n      tag_77\n      jump\t// in\n    tag_112:\n        /* \"#utility.yul\":1107:1110   */\n      dup3\n        /* \"#utility.yul\":1100:1137   */\n      mstore\n        /* \"#utility.yul\":1025:1143   */\n      pop\n      pop\n      jump\t// out\n        /* \"#utility.yul\":1149:1371   */\n    tag_14:\n        /* \"#utility.yul\":1242:1246   */\n      0x00\n        /* \"#utility.yul\":1280:1282   */\n      0x20\n        /* \"#utility.yul\":1269:1278   */\n      dup3\n        /* \"#utility.yul\":1265:1283   */\n      add\n        /* \"#utility.yul\":1257:1283   */\n      swap1\n      pop\n        /* \"#utility.yul\":1293:1364   */\n      tag_114\n        /* \"#utility.yul\":1361:1362   */\n      0x00\n        /* \"#utility.yul\":1350:1359   */\n      dup4\n        /* \"#utility.yul\":1346:1363   */\n      add\n        /* \"#utility.yul\":1337:1343   */\n      dup5\n        /* \"#utility.yul\":1293:1364   */\n      tag_80\n      jump\t// in\n    tag_114:\n        /* \"#utility.yul\":1149:1371   */\n      swap3\n      swap2\n      pop\n      pop\n      jump\t// out\n        /* \"#utility.yul\":1377:1503   */\n    tag_81:\n        /* \"#utility.yul\":1414:1421   */\n      0x00\n        /* \"#utility.yul\":1454:1496   */\n      0xffffffffffffffffffffffffffffffffffffffff\n        /* \"#utility.yul\":1447:1452   */\n      dup3\n        /* \"#utility.yul\":1443:1497   */\n      and\n        /* \"#utility.yul\":1432:1497   */\n      swap1\n      pop\n        /* \"#utility.yul\":1377:1503   */\n      swap2\n      swap1\n      pop\n      jump\t// out\n        /* \"#utility.yul\":1509:1605   */\n    tag_82:\n        /* \"#utility.yul\":1546:1553   */\n      0x00\n        /* \"#utility.yul\":1575:1599   */\n      tag_117\n        /* \"#utility.yul\":1593:1598   */\n      dup3\n        /* \"#utility.yul\":1575:1599   */\n      tag_81\n      jump\t// in\n    tag_117:\n        /* \"#utility.yul\":1564:1599   */\n      swap1\n      pop\n        /* \"#utility.yul\":1509:1605   */\n      swap2\n      swap1\n      pop\n      jump\t// out\n        /* \"#utility.yul\":1611:1729   */\n    tag_83:\n        /* \"#utility.yul\":1698:1722   */\n      tag_119\n        /* \"#utility.yul\":1716:1721   */\n      dup2\n        /* \"#utility.yul\":1698:1722   */\n      tag_82\n      jump\t// in\n    tag_119:\n        /* \"#utility.yul\":1693:1696   */\n      dup3\n        /* \"#utility.yul\":1686:1723   */\n      mstore\n        /* \"#utility.yul\":1611:1729   */\n      pop\n      pop\n      jump\t// out\n        /* \"#utility.yul\":1735:1957   */\n    tag_18:\n        /* \"#utility.yul\":1828:1832   */\n      0x00\n        /* \"#utility.yul\":1866:1868   */\n      0x20\n        /* \"#utility.yul\":1855:1864   */\n      dup3\n        /* \"#utility.yul\":1851:1869   */\n      add\n        /* \"#utility.yul\":1843:1869   */\n      swap1\n      pop\n        /* \"#utility.yul\":1879:1950   */\n      tag_121\n        /* \"#utility.yul\":1947:1948   */\n      0x00\n        /* \"#utility.yul\":1936:1945   */\n      dup4\n        /* \"#utility.yul\":1932:1949   */\n      add\n        /* \"#utility.yul\":1923:1929   */\n      dup5\n        /* \"#utility.yul\":1879:1950   */\n      tag_83\n      jump\t// in\n    tag_121:\n        /* \"#utility.yul\":1735:1957   */\n      swap3\n      swap2\n      pop\n      pop\n      jump\t// out\n        /* \"#utility.yul\":1963:2132   */\n    tag_84:\n        /* \"#utility.yul\":2047:2058   */\n      0x00\n        /* \"#utility.yul\":2081:2087   */\n      dup3\n        /* \"#utility.yul\":2076:2079   */\n      dup3\n        /* \"#utility.yul\":2069:2088   */\n      mstore\n        /* \"#utility.yul\":2121:2125   */\n      0x20\n        /* \"#utility.yul\":2116:2119   */\n      dup3\n        /* \"#utility.yul\":2112:2126   */\n      add\n        /* \"#utility.yul\":2097:2126   */\n      swap1\n      pop\n        /* \"#utility.yul\":1963:2132   */\n      swap3\n      swap2\n      pop\n      pop\n      jump\t// out\n        /* \"#utility.yul\":2138:2358   */\n    tag_85:\n        /* \"#utility.yul\":2278:2312   */\n      0x58544b20616d6f756e74206d7573742062652067726561746572207468616e20\n        /* \"#utility.yul\":2274:2275   */\n      0x00\n        /* \"#utility.yul\":2266:2272   */\n      dup3\n        /* \"#utility.yul\":2262:2276   */\n      add\n        /* \"#utility.yul\":2255:2313   */\n      mstore\n        /* \"#utility.yul\":2347:2350   */\n      0x3000000000000000000000000000000000000000000000000000000000000000\n        /* \"#utility.yul\":2342:2344   */\n      0x20\n        /* \"#utility.yul\":2334:2340   */\n      dup3\n        /* \"#utility.yul\":2330:2345   */\n      add\n        /* \"#utility.yul\":2323:2351   */\n      mstore\n        /* \"#utility.yul\":2138:2358   */\n      pop\n      jump\t// out\n        /* \"#utility.yul\":2364:2730   */\n    tag_86:\n        /* \"#utility.yul\":2506:2509   */\n      0x00\n        /* \"#utility.yul\":2527:2594   */\n      tag_125\n        /* \"#utility.yul\":2591:2593   */\n      0x21\n        /* \"#utility.yul\":2586:2589   */\n      dup4\n        /* \"#utility.yul\":2527:2594   */\n      tag_84\n      jump\t// in\n    tag_125:\n        /* \"#utility.yul\":2520:2594   */\n      swap2\n      pop\n        /* \"#utility.yul\":2603:2696   */\n      tag_126\n        /* \"#utility.yul\":2692:2695   */\n      dup3\n        /* \"#utility.yul\":2603:2696   */\n      tag_85\n      jump\t// in\n    tag_126:\n        /* \"#utility.yul\":2721:2723   */\n      0x40\n        /* \"#utility.yul\":2716:2719   */\n      dup3\n        /* \"#utility.yul\":2712:2724   */\n      add\n        /* \"#utility.yul\":2705:2724   */\n      swap1\n      pop\n        /* \"#utility.yul\":2364:2730   */\n      swap2\n      swap1\n      pop\n      jump\t// out\n        /* \"#utility.yul\":2736:3155   */\n    tag_40:\n        /* \"#utility.yul\":2902:2906   */\n      0x00\n        /* \"#utility.yul\":2940:2942   */\n      0x20\n        /* \"#utility.yul\":2929:2938   */\n      dup3\n        /* \"#utility.yul\":2925:2943   */\n      add\n        /* \"#utility.yul\":2917:2943   */\n      swap1\n      pop\n        /* \"#utility.yul\":2989:2998   */\n      dup2\n        /* \"#utility.yul\":2983:2987   */\n      dup2\n        /* \"#utility.yul\":2979:2999   */\n      sub\n        /* \"#utility.yul\":2975:2976   */\n      0x00\n        /* \"#utility.yul\":2964:2973   */\n      dup4\n        /* \"#utility.yul\":2960:2977   */\n      add\n        /* \"#utility.yul\":2953:3000   */\n      mstore\n        /* \"#utility.yul\":3017:3148   */\n      tag_128\n        /* \"#utility.yul\":3143:3147   */\n      dup2\n        /* \"#utility.yul\":3017:3148   */\n      tag_86\n      jump\t// in\n    tag_128:\n        /* \"#utility.yul\":3009:3148   */\n      swap1\n      pop\n        /* \"#utility.yul\":2736:3155   */\n      swap2\n      swap1\n      pop\n      jump\t// out\n        /* \"#utility.yul\":3161:3603   */\n    tag_43:\n        /* \"#utility.yul\":3310:3314   */\n      0x00\n        /* \"#utility.yul\":3348:3350   */\n      0x60\n        /* \"#utility.yul\":3337:3346   */\n      dup3\n        /* \"#utility.yul\":3333:3351   */\n      add\n        /* \"#utility.yul\":3325:3351   */\n      swap1\n      pop\n        /* \"#utility.yul\":3361:3432   */\n      tag_130\n        /* \"#utility.yul\":3429:3430   */\n      0x00\n        /* \"#utility.yul\":3418:3427   */\n      dup4\n        /* \"#utility.yul\":3414:3431   */\n      add\n        /* \"#utility.yul\":3405:3411   */\n      dup7\n        /* \"#utility.yul\":3361:3432   */\n      tag_83\n      jump\t// in\n    tag_130:\n        /* \"#utility.yul\":3442:3514   */\n      tag_131\n        /* \"#utility.yul\":3510:3512   */\n      0x20\n        /* \"#utility.yul\":3499:3508   */\n      dup4\n        /* \"#utility.yul\":3495:3513   */\n      add\n        /* \"#utility.yul\":3486:3492   */\n      dup6\n        /* \"#utility.yul\":3442:3514   */\n      tag_83\n      jump\t// in\n    tag_131:\n        /* \"#utility.yul\":3524:3596   */\n      tag_132\n        /* \"#utility.yul\":3592:3594   */\n      0x40\n        /* \"#utility.yul\":3581:3590   */\n      dup4\n        /* \"#utility.yul\":3577:3595   */\n      add\n        /* \"#utility.yul\":3568:3574   */\n      dup5\n        /* \"#utility.yul\":3524:3596   */\n      tag_80\n      jump\t// in\n    tag_132:\n        /* \"#utility.yul\":3161:3603   */\n      swap5\n      swap4\n      pop\n      pop\n      pop\n      pop\n      jump\t// out\n        /* \"#utility.yul\":3609:3699   */\n    tag_87:\n        /* \"#utility.yul\":3643:3650   */\n      0x00\n        /* \"#utility.yul\":3686:3691   */\n      dup2\n        /* \"#utility.yul\":3679:3692   */\n      iszero\n        /* \"#utility.yul\":3672:3693   */\n      iszero\n        /* \"#utility.yul\":3661:3693   */\n      swap1\n      pop\n        /* \"#utility.yul\":3609:3699   */\n      swap2\n      swap1\n      pop\n      jump\t// out\n        /* \"#utility.yul\":3705:3821   */\n    tag_88:\n        /* \"#utility.yul\":3775:3796   */\n      tag_135\n        /* \"#utility.yul\":3790:3795   */\n      dup2\n        /* \"#utility.yul\":3775:3796   */\n      tag_87\n      jump\t// in\n    tag_135:\n        /* \"#utility.yul\":3768:3773   */\n      dup2\n        /* \"#utility.yul\":3765:3797   */\n      eq\n        /* \"#utility.yul\":3755:3815   */\n      tag_136\n      jumpi\n        /* \"#utility.yul\":3811:3812   */\n      0x00\n        /* \"#utility.yul\":3808:3809   */\n      dup1\n        /* \"#utility.yul\":3801:3813   */\n      revert\n        /* \"#utility.yul\":3755:3815   */\n    tag_136:\n        /* \"#utility.yul\":3705:3821   */\n      pop\n      jump\t// out\n        /* \"#utility.yul\":3827:3964   */\n    tag_89:\n        /* \"#utility.yul\":3881:3886   */\n      0x00\n        /* \"#utility.yul\":3912:3918   */\n      dup2\n        /* \"#utility.yul\":3906:3919   */\n      mload\n        /* \"#utility.yul\":3897:3919   */\n      swap1\n      pop\n        /* \"#utility.yul\":3928:3958   */\n      tag_138\n        /* \"#utility.yul\":3952:3957   */\n      dup2\n        /* \"#utility.yul\":3928:3958   */\n      tag_88\n      jump\t// in\n    tag_138:\n        /* \"#utility.yul\":3827:3964   */\n      swap3\n      swap2\n      pop\n      pop\n      jump\t// out\n        /* \"#utility.yul\":3970:4315   */\n    tag_47:\n        /* \"#utility.yul\":4037:4043   */\n      0x00\n        /* \"#utility.yul\":4086:4088   */\n      0x20\n        /* \"#utility.yul\":4074:4083   */\n      dup3\n        /* \"#utility.yul\":4065:4072   */\n      dup5\n        /* \"#utility.yul\":4061:4084   */\n      sub\n        /* \"#utility.yul\":4057:4089   */\n      slt\n        /* \"#utility.yul\":4054:4173   */\n      iszero\n      tag_140\n      jumpi\n        /* \"#utility.yul\":4092:4171   */\n      tag_141\n      tag_75\n      jump\t// in\n    tag_141:\n        /* \"#utility.yul\":4054:4173   */\n    tag_140:\n        /* \"#utility.yul\":4212:4213   */\n      0x00\n        /* \"#utility.yul\":4237:4298   */\n      tag_142\n        /* \"#utility.yul\":4290:4297   */\n      dup5\n        /* \"#utility.yul\":4281:4287   */\n      dup3\n        /* \"#utility.yul\":4270:4279   */\n      dup6\n        /* \"#utility.yul\":4266:4288   */\n      add\n        /* \"#utility.yul\":4237:4298   */\n      tag_89\n      jump\t// in\n    tag_142:\n        /* \"#utility.yul\":4227:4298   */\n      swap2\n      pop\n        /* \"#utility.yul\":4183:4308   */\n      pop\n        /* \"#utility.yul\":3970:4315   */\n      swap3\n      swap2\n      pop\n      pop\n      jump\t// out\n        /* \"#utility.yul\":4321:4653   */\n    tag_49:\n        /* \"#utility.yul\":4442:4446   */\n      0x00\n        /* \"#utility.yul\":4480:4482   */\n      0x40\n        /* \"#utility.yul\":4469:4478   */\n      dup3\n        /* \"#utility.yul\":4465:4483   */\n      add\n        /* \"#utility.yul\":4457:4483   */\n      swap1\n      pop\n        /* \"#utility.yul\":4493:4564   */\n      tag_144\n        /* \"#utility.yul\":4561:4562   */\n      0x00\n        /* \"#utility.yul\":4550:4559   */\n      dup4\n        /* \"#utility.yul\":4546:4563   */\n      add\n        /* \"#utility.yul\":4537:4543   */\n      dup6\n        /* \"#utility.yul\":4493:4564   */\n      tag_83\n      jump\t// in\n    tag_144:\n        /* \"#utility.yul\":4574:4646   */\n      tag_145\n        /* \"#utility.yul\":4642:4644   */\n      0x20\n        /* \"#utility.yul\":4631:4640   */\n      dup4\n        /* \"#utility.yul\":4627:4645   */\n      add\n        /* \"#utility.yul\":4618:4624   */\n      dup5\n        /* \"#utility.yul\":4574:4646   */\n      tag_80\n      jump\t// in\n    tag_145:\n        /* \"#utility.yul\":4321:4653   */\n      swap4\n      swap3\n      pop\n      pop\n      pop\n      jump\t// out\n        /* \"#utility.yul\":4659:4880   */\n    tag_90:\n        /* \"#utility.yul\":4799:4833   */\n      0x5553445420616d6f756e74206d7573742062652067726561746572207468616e\n        /* \"#utility.yul\":4795:4796   */\n      0x00\n        /* \"#utility.yul\":4787:4793   */\n      dup3\n        /* \"#utility.yul\":4783:4797   */\n      add\n        /* \"#utility.yul\":4776:4834   */\n      mstore\n        /* \"#utility.yul\":4868:4872   */\n      0x2030000000000000000000000000000000000000000000000000000000000000\n        /* \"#utility.yul\":4863:4865   */\n      0x20\n        /* \"#utility.yul\":4855:4861   */\n      dup3\n        /* \"#utility.yul\":4851:4866   */\n      add\n        /* \"#utility.yul\":4844:4873   */\n      mstore\n        /* \"#utility.yul\":4659:4880   */\n      pop\n      jump\t// out\n        /* \"#utility.yul\":4886:5252   */\n    tag_91:\n        /* \"#utility.yul\":5028:5031   */\n      0x00\n        /* \"#utility.yul\":5049:5116   */\n      tag_148\n        /* \"#utility.yul\":5113:5115   */\n      0x22\n        /* \"#utility.yul\":5108:5111   */\n      dup4\n        /* \"#utility.yul\":5049:5116   */\n      tag_84\n      jump\t// in\n    tag_148:\n        /* \"#utility.yul\":5042:5116   */\n      swap2\n      pop\n        /* \"#utility.yul\":5125:5218   */\n      tag_149\n        /* \"#utility.yul\":5214:5217   */\n      dup3\n        /* \"#utility.yul\":5125:5218   */\n      tag_90\n      jump\t// in\n    tag_149:\n        /* \"#utility.yul\":5243:5245   */\n      0x40\n        /* \"#utility.yul\":5238:5241   */\n      dup3\n        /* \"#utility.yul\":5234:5246   */\n      add\n        /* \"#utility.yul\":5227:5246   */\n      swap1\n      pop\n        /* \"#utility.yul\":4886:5252   */\n      swap2\n      swap1\n      pop\n      jump\t// out\n        /* \"#utility.yul\":5258:5677   */\n    tag_56:\n        /* \"#utility.yul\":5424:5428   */\n      0x00\n        /* \"#utility.yul\":5462:5464   */\n      0x20\n        /* \"#utility.yul\":5451:5460   */\n      dup3\n        /* \"#utility.yul\":5447:5465   */\n      add\n        /* \"#utility.yul\":5439:5465   */\n      swap1\n      pop\n        /* \"#utility.yul\":5511:5520   */\n      dup2\n        /* \"#utility.yul\":5505:5509   */\n      dup2\n        /* \"#utility.yul\":5501:5521   */\n      sub\n        /* \"#utility.yul\":5497:5498   */\n      0x00\n        /* \"#utility.yul\":5486:5495   */\n      dup4\n        /* \"#utility.yul\":5482:5499   */\n      add\n        /* \"#utility.yul\":5475:5522   */\n      mstore\n        /* \"#utility.yul\":5539:5670   */\n      tag_151\n        /* \"#utility.yul\":5665:5669   */\n      dup2\n        /* \"#utility.yul\":5539:5670   */\n      tag_91\n      jump\t// in\n    tag_151:\n        /* \"#utility.yul\":5531:5670   */\n      swap1\n      pop\n        /* \"#utility.yul\":5258:5677   */\n      swap2\n      swap1\n      pop\n      jump\t// out\n        /* \"#utility.yul\":5683:5863   */\n    tag_92:\n        /* \"#utility.yul\":5731:5808   */\n      0x4e487b7100000000000000000000000000000000000000000000000000000000\n        /* \"#utility.yul\":5728:5729   */\n      0x00\n        /* \"#utility.yul\":5721:5809   */\n      mstore\n        /* \"#utility.yul\":5828:5832   */\n      0x11\n        /* \"#utility.yul\":5825:5826   */\n      0x04\n        /* \"#utility.yul\":5818:5833   */\n      mstore\n        /* \"#utility.yul\":5852:5856   */\n      0x24\n        /* \"#utility.yul\":5849:5850   */\n      0x00\n        /* \"#utility.yul\":5842:5857   */\n      revert\n        /* \"#utility.yul\":5869:6063   */\n    tag_68:\n        /* \"#utility.yul\":5909:5913   */\n      0x00\n        /* \"#utility.yul\":5929:5949   */\n      tag_154\n        /* \"#utility.yul\":5947:5948   */\n      dup3\n        /* \"#utility.yul\":5929:5949   */\n      tag_77\n      jump\t// in\n    tag_154:\n        /* \"#utility.yul\":5924:5949   */\n      swap2\n      pop\n        /* \"#utility.yul\":5963:5983   */\n      tag_155\n        /* \"#utility.yul\":5981:5982   */\n      dup4\n        /* \"#utility.yul\":5963:5983   */\n      tag_77\n      jump\t// in\n    tag_155:\n        /* \"#utility.yul\":5958:5983   */\n      swap3\n      pop\n        /* \"#utility.yul\":6007:6008   */\n      dup3\n        /* \"#utility.yul\":6004:6005   */\n      dup3\n        /* \"#utility.yul\":6000:6009   */\n      sub\n        /* \"#utility.yul\":5992:6009   */\n      swap1\n      pop\n        /* \"#utility.yul\":6031:6032   */\n      dup2\n        /* \"#utility.yul\":6025:6029   */\n      dup2\n        /* \"#utility.yul\":6022:6033   */\n      gt\n        /* \"#utility.yul\":6019:6056   */\n      iszero\n      tag_156\n      jumpi\n        /* \"#utility.yul\":6036:6054   */\n      tag_157\n      tag_92\n      jump\t// in\n    tag_157:\n        /* \"#utility.yul\":6019:6056   */\n    tag_156:\n        /* \"#utility.yul\":5869:6063   */\n      swap3\n      swap2\n      pop\n      pop\n      jump\t// out\n        /* \"#utility.yul\":6069:6171   */\n    tag_93:\n        /* \"#utility.yul\":6111:6119   */\n      0x00\n        /* \"#utility.yul\":6158:6163   */\n      dup2\n        /* \"#utility.yul\":6155:6156   */\n      0x01\n        /* \"#utility.yul\":6151:6164   */\n      shr\n        /* \"#utility.yul\":6130:6164   */\n      swap1\n      pop\n        /* \"#utility.yul\":6069:6171   */\n      swap2\n      swap1\n      pop\n      jump\t// out\n        /* \"#utility.yul\":6177:7025   */\n    tag_94:\n        /* \"#utility.yul\":6238:6243   */\n      0x00\n        /* \"#utility.yul\":6245:6249   */\n      dup1\n        /* \"#utility.yul\":6269:6275   */\n      dup3\n        /* \"#utility.yul\":6260:6275   */\n      swap2\n      pop\n        /* \"#utility.yul\":6293:6298   */\n      dup4\n        /* \"#utility.yul\":6284:6298   */\n      swap1\n      pop\n        /* \"#utility.yul\":6307:7019   */\n    tag_160:\n        /* \"#utility.yul\":6328:6329   */\n      0x01\n        /* \"#utility.yul\":6318:6326   */\n      dup6\n        /* \"#utility.yul\":6315:6330   */\n      gt\n        /* \"#utility.yul\":6307:7019   */\n      iszero\n      tag_162\n      jumpi\n        /* \"#utility.yul\":6423:6427   */\n      dup1\n        /* \"#utility.yul\":6418:6421   */\n      dup7\n        /* \"#utility.yul\":6414:6428   */\n      div\n        /* \"#utility.yul\":6408:6412   */\n      dup2\n        /* \"#utility.yul\":6405:6429   */\n      gt\n        /* \"#utility.yul\":6402:6452   */\n      iszero\n      tag_163\n      jumpi\n        /* \"#utility.yul\":6432:6450   */\n      tag_164\n      tag_92\n      jump\t// in\n    tag_164:\n        /* \"#utility.yul\":6402:6452   */\n    tag_163:\n        /* \"#utility.yul\":6482:6483   */\n      0x01\n        /* \"#utility.yul\":6472:6480   */\n      dup6\n        /* \"#utility.yul\":6468:6484   */\n      and\n        /* \"#utility.yul\":6465:6916   */\n      iszero\n      tag_165\n      jumpi\n        /* \"#utility.yul\":6897:6901   */\n      dup1\n        /* \"#utility.yul\":6890:6895   */\n      dup3\n        /* \"#utility.yul\":6886:6902   */\n      mul\n        /* \"#utility.yul\":6877:6902   */\n      swap2\n      pop\n        /* \"#utility.yul\":6465:6916   */\n    tag_165:\n        /* \"#utility.yul\":6947:6951   */\n      dup1\n        /* \"#utility.yul\":6941:6945   */\n      dup2\n        /* \"#utility.yul\":6937:6952   */\n      mul\n        /* \"#utility.yul\":6929:6952   */\n      swap1\n      pop\n        /* \"#utility.yul\":6977:7009   */\n      tag_166\n        /* \"#utility.yul\":7000:7008   */\n      dup6\n        /* \"#utility.yul\":6977:7009   */\n      tag_93\n      jump\t// in\n    tag_166:\n        /* \"#utility.yul\":6965:7009   */\n      swap5\n      pop\n        /* \"#utility.yul\":6307:7019   */\n      jump(tag_160)\n    tag_162:\n        /* \"#utility.yul\":6177:7025   */\n      swap5\n      pop\n      swap5\n      swap3\n      pop\n      pop\n      pop\n      jump\t// out\n        /* \"#utility.yul\":7031:8104   */\n    tag_95:\n        /* \"#utility.yul\":7085:7090   */\n      0x00\n        /* \"#utility.yul\":7276:7284   */\n      dup3\n        /* \"#utility.yul\":7266:7306   */\n      tag_168\n      jumpi\n        /* \"#utility.yul\":7297:7298   */\n      0x01\n        /* \"#utility.yul\":7288:7298   */\n      swap1\n      pop\n        /* \"#utility.yul\":7299:7304   */\n      jump(tag_167)\n        /* \"#utility.yul\":7266:7306   */\n    tag_168:\n        /* \"#utility.yul\":7325:7329   */\n      dup2\n        /* \"#utility.yul\":7315:7351   */\n      tag_169\n      jumpi\n        /* \"#utility.yul\":7342:7343   */\n      0x00\n        /* \"#utility.yul\":7333:7343   */\n      swap1\n      pop\n        /* \"#utility.yul\":7344:7349   */\n      jump(tag_167)\n        /* \"#utility.yul\":7315:7351   */\n    tag_169:\n        /* \"#utility.yul\":7411:7415   */\n      dup2\n        /* \"#utility.yul\":7459:7460   */\n      0x01\n        /* \"#utility.yul\":7454:7481   */\n      dup2\n      eq\n      tag_171\n      jumpi\n        /* \"#utility.yul\":7495:7496   */\n      0x02\n        /* \"#utility.yul\":7490:7681   */\n      dup2\n      eq\n      tag_172\n      jumpi\n        /* \"#utility.yul\":7404:7681   */\n      jump(tag_170)\n        /* \"#utility.yul\":7454:7481   */\n    tag_171:\n        /* \"#utility.yul\":7472:7473   */\n      0x01\n        /* \"#utility.yul\":7463:7473   */\n      swap2\n      pop\n        /* \"#utility.yul\":7474:7479   */\n      pop\n      jump(tag_167)\n        /* \"#utility.yul\":7490:7681   */\n    tag_172:\n        /* \"#utility.yul\":7535:7538   */\n      0xff\n        /* \"#utility.yul\":7525:7533   */\n      dup5\n        /* \"#utility.yul\":7522:7539   */\n      gt\n        /* \"#utility.yul\":7519:7562   */\n      iszero\n      tag_173\n      jumpi\n        /* \"#utility.yul\":7542:7560   */\n      tag_174\n      tag_92\n      jump\t// in\n    tag_174:\n        /* \"#utility.yul\":7519:7562   */\n    tag_173:\n        /* \"#utility.yul\":7591:7599   */\n      dup4\n        /* \"#utility.yul\":7588:7589   */\n      0x02\n        /* \"#utility.yul\":7584:7600   */\n      exp\n        /* \"#utility.yul\":7575:7600   */\n      swap2\n      pop\n        /* \"#utility.yul\":7626:7629   */\n      dup5\n        /* \"#utility.yul\":7619:7624   */\n      dup3\n        /* \"#utility.yul\":7616:7630   */\n      gt\n        /* \"#utility.yul\":7613:7653   */\n      iszero\n      tag_175\n      jumpi\n        /* \"#utility.yul\":7633:7651   */\n      tag_176\n      tag_92\n      jump\t// in\n    tag_176:\n        /* \"#utility.yul\":7613:7653   */\n    tag_175:\n        /* \"#utility.yul\":7666:7671   */\n      pop\n      jump(tag_167)\n        /* \"#utility.yul\":7404:7681   */\n    tag_170:\n      pop\n        /* \"#utility.yul\":7790:7792   */\n      0x20\n        /* \"#utility.yul\":7780:7788   */\n      dup4\n        /* \"#utility.yul\":7777:7793   */\n      lt\n        /* \"#utility.yul\":7771:7774   */\n      0x0133\n        /* \"#utility.yul\":7765:7769   */\n      dup4\n        /* \"#utility.yul\":7762:7775   */\n      lt\n        /* \"#utility.yul\":7758:7794   */\n      and\n        /* \"#utility.yul\":7740:7742   */\n      0x4e\n        /* \"#utility.yul\":7730:7738   */\n      dup5\n        /* \"#utility.yul\":7727:7743   */\n      lt\n        /* \"#utility.yul\":7722:7724   */\n      0x0b\n        /* \"#utility.yul\":7716:7720   */\n      dup5\n        /* \"#utility.yul\":7713:7725   */\n      lt\n        /* \"#utility.yul\":7709:7744   */\n      and\n        /* \"#utility.yul\":7693:7804   */\n      or\n        /* \"#utility.yul\":7690:7936   */\n      iszero\n      tag_177\n      jumpi\n        /* \"#utility.yul\":7846:7854   */\n      dup3\n        /* \"#utility.yul\":7840:7844   */\n      dup3\n        /* \"#utility.yul\":7836:7855   */\n      exp\n        /* \"#utility.yul\":7827:7855   */\n      swap1\n      pop\n        /* \"#utility.yul\":7881:7884   */\n      dup4\n        /* \"#utility.yul\":7874:7879   */\n      dup2\n        /* \"#utility.yul\":7871:7885   */\n      gt\n        /* \"#utility.yul\":7868:7908   */\n      iszero\n      tag_178\n      jumpi\n        /* \"#utility.yul\":7888:7906   */\n      tag_179\n      tag_92\n      jump\t// in\n    tag_179:\n        /* \"#utility.yul\":7868:7908   */\n    tag_178:\n        /* \"#utility.yul\":7921:7926   */\n      jump(tag_167)\n        /* \"#utility.yul\":7690:7936   */\n    tag_177:\n        /* \"#utility.yul\":7961:8003   */\n      tag_180\n        /* \"#utility.yul\":7999:8002   */\n      dup5\n        /* \"#utility.yul\":7989:7997   */\n      dup5\n        /* \"#utility.yul\":7983:7987   */\n      dup5\n        /* \"#utility.yul\":7980:7981   */\n      0x01\n        /* \"#utility.yul\":7961:8003   */\n      tag_94\n      jump\t// in\n    tag_180:\n        /* \"#utility.yul\":7946:8003   */\n      swap3\n      pop\n      swap1\n      pop\n        /* \"#utility.yul\":8035:8039   */\n      dup2\n        /* \"#utility.yul\":8030:8033   */\n      dup5\n        /* \"#utility.yul\":8026:8040   */\n      div\n        /* \"#utility.yul\":8019:8024   */\n      dup2\n        /* \"#utility.yul\":8016:8041   */\n      gt\n        /* \"#utility.yul\":8013:8064   */\n      iszero\n      tag_181\n      jumpi\n        /* \"#utility.yul\":8044:8062   */\n      tag_182\n      tag_92\n      jump\t// in\n    tag_182:\n        /* \"#utility.yul\":8013:8064   */\n    tag_181:\n        /* \"#utility.yul\":8093:8097   */\n      dup2\n        /* \"#utility.yul\":8086:8091   */\n      dup2\n        /* \"#utility.yul\":8082:8098   */\n      mul\n        /* \"#utility.yul\":8073:8098   */\n      swap1\n      pop\n        /* \"#utility.yul\":7031:8104   */\n    tag_167:\n      swap4\n      swap3\n      pop\n      pop\n      pop\n      jump\t// out\n        /* \"#utility.yul\":8110:8395   */\n    tag_70:\n        /* \"#utility.yul\":8170:8175   */\n      0x00\n        /* \"#utility.yul\":8194:8217   */\n      tag_184\n        /* \"#utility.yul\":8212:8216   */\n      dup3\n        /* \"#utility.yul\":8194:8217   */\n      tag_77\n      jump\t// in\n    tag_184:\n        /* \"#utility.yul\":8186:8217   */\n      swap2\n      pop\n        /* \"#utility.yul\":8238:8265   */\n      tag_185\n        /* \"#utility.yul\":8256:8264   */\n      dup4\n        /* \"#utility.yul\":8238:8265   */\n      tag_77\n      jump\t// in\n    tag_185:\n        /* \"#utility.yul\":8226:8265   */\n      swap3\n      pop\n        /* \"#utility.yul\":8284:8388   */\n      tag_186\n        /* \"#utility.yul\":8321:8387   */\n      0xffffffffffffffffffffffffffffffffffffffffffffffffffffffffffffffff\n        /* \"#utility.yul\":8311:8319   */\n      dup5\n        /* \"#utility.yul\":8305:8309   */\n      dup5\n        /* \"#utility.yul\":8284:8388   */\n      tag_95\n      jump\t// in\n    tag_186:\n        /* \"#utility.yul\":8275:8388   */\n      swap1\n      pop\n        /* \"#utility.yul\":8110:8395   */\n      swap3\n      swap2\n      pop\n      pop\n      jump\t// out\n        /* \"#utility.yul\":8401:8581   */\n    tag_96:\n        /* \"#utility.yul\":8449:8526   */\n      0x4e487b7100000000000000000000000000000000000000000000000000000000\n        /* \"#utility.yul\":8446:8447   */\n      0x00\n        /* \"#utility.yul\":8439:8527   */\n      mstore\n        /* \"#utility.yul\":8546:8550   */\n      0x12\n        /* \"#utility.yul\":8543:8544   */\n      0x04\n        /* \"#utility.yul\":8536:8551   */\n      mstore\n        /* \"#utility.yul\":8570:8574   */\n      0x24\n        /* \"#utility.yul\":8567:8568   */\n      0x00\n        /* \"#utility.yul\":8560:8575   */\n      revert\n        /* \"#utility.yul\":8587:8772   */\n    tag_73:\n        /* \"#utility.yul\":8627:8628   */\n      0x00\n        /* \"#utility.yul\":8644:8664   */\n      tag_189\n        /* \"#utility.yul\":8662:8663   */\n      dup3\n        /* \"#utility.yul\":8644:8664   */\n      tag_77\n      jump\t// in\n    tag_189:\n        /* \"#utility.yul\":8639:8664   */\n      swap2\n      pop\n        /* \"#utility.yul\":8678:8698   */\n      tag_190\n        /* \"#utility.yul\":8696:8697   */\n      dup4\n        /* \"#utility.yul\":8678:8698   */\n      tag_77\n      jump\t// in\n    tag_190:\n        /* \"#utility.yul\":8673:8698   */\n      swap3\n      pop\n        /* \"#utility.yul\":8717:8718   */\n      dup3\n        /* \"#utility.yul\":8707:8742   */\n      tag_191\n      jumpi\n        /* \"#utility.yul\":8722:8740   */\n      tag_192\n      tag_96\n      jump\t// in\n    tag_192:\n        /* \"#utility.yul\":8707:8742   */\n    tag_191:\n        /* \"#utility.yul\":8764:8765   */\n      dup3\n        /* \"#utility.yul\":8761:8762   */\n      dup3\n        /* \"#utility.yul\":8757:8766   */\n      div\n        /* \"#utility.yul\":8752:8766   */\n      swap1\n      pop\n        /* \"#utility.yul\":8587:8772   */\n      swap3\n      swap2\n      pop\n      pop\n      jump\t// out\n\n    auxdata: 0xa2646970667358221220ce11bdea635e99553e5d61f05a18602f54afc999e7fe6ae4f934607c88128e3864736f6c63430008180033\n}\n",
				"bytecode": {
					"linkReferences": {},
					"object": "608060405234801561000f575f80fd5b50604051610b97380380610b9783398181016040528101906100319190610115565b815f806101000a81548173ffffffffffffffffffffffffffffffffffffffff021916908373ffffffffffffffffffffffffffffffffffffffff1602179055508060015f6101000a81548173ffffffffffffffffffffffffffffffffffffffff021916908373ffffffffffffffffffffffffffffffffffffffff1602179055505050610153565b5f80fd5b5f73ffffffffffffffffffffffffffffffffffffffff82169050919050565b5f6100e4826100bb565b9050919050565b6100f4816100da565b81146100fe575f80fd5b50565b5f8151905061010f816100eb565b92915050565b5f806040838503121561012b5761012a6100b7565b5b5f61013885828601610101565b925050602061014985828601610101565b9150509250929050565b610a37806101605f395ff3fe608060405234801561000f575f80fd5b5060043610610060575f3560e01c80635657dc7e1461006457806359cef5c1146100945780635f48ab5a146100b25780636c559dd8146100e25780639ab4a445146100fe578063fe08cc881461011c575b5f80fd5b61007e60048036038101906100799190610538565b610138565b60405161008b9190610572565b60405180910390f35b61009c61014d565b6040516100a991906105ca565b60405180910390f35b6100cc60048036038101906100c79190610538565b610172565b6040516100d99190610572565b60405180910390f35b6100fc60048036038101906100f79190610538565b610187565b005b610106610313565b60405161011391906105ca565b60405180910390f35b61013660048036038101906101319190610538565b610336565b005b5f61014682600360046104c2565b9050919050565b60015f9054906101000a900473ffffffffffffffffffffffffffffffffffffffff1681565b5f61018082600460036104c2565b9050919050565b5f81116101c9576040517f08c379a00000000000000000000000000000000000000000000000000000000081526004016101c090610663565b60405180910390fd5b5f6101d382610172565b905060015f9054906101000a900473ffffffffffffffffffffffffffffffffffffffff1673ffffffffffffffffffffffffffffffffffffffff166323b872dd3330856040518463ffffffff1660e01b815260040161023393929190610681565b6020604051808303815f875af115801561024f573d5f803e3d5ffd5b505050506040513d601f19601f8201168201806040525081019061027391906106eb565b505f8054906101000a900473ffffffffffffffffffffffffffffffffffffffff1673ffffffffffffffffffffffffffffffffffffffff1663a9059cbb33836040518363ffffffff1660e01b81526004016102ce929190610716565b6020604051808303815f875af11580156102ea573d5f803e3d5ffd5b505050506040513d601f19601f8201168201806040525081019061030e91906106eb565b505050565b5f8054906101000a900473ffffffffffffffffffffffffffffffffffffffff1681565b5f8111610378576040517f08c379a000000000000000000000000000000000000000000000000000000000815260040161036f906107ad565b60405180910390fd5b5f61038282610138565b90505f8054906101000a900473ffffffffffffffffffffffffffffffffffffffff1673ffffffffffffffffffffffffffffffffffffffff166323b872dd3330856040518463ffffffff1660e01b81526004016103e093929190610681565b6020604051808303815f875af11580156103fc573d5f803e3d5ffd5b505050506040513d601f19601f8201168201806040525081019061042091906106eb565b5060015f9054906101000a900473ffffffffffffffffffffffffffffffffffffffff1673ffffffffffffffffffffffffffffffffffffffff1663a9059cbb33836040518363ffffffff1660e01b815260040161047d929190610716565b6020604051808303815f875af1158015610499573d5f803e3d5ffd5b505050506040513d601f19601f820116820180604052508101906104bd91906106eb565b505050565b5f81836104cf91906107f8565b670de0b6b3a76400006104e2919061095a565b83856104ee919061095a565b6104f891906109d1565b90509392505050565b5f80fd5b5f819050919050565b61051781610505565b8114610521575f80fd5b50565b5f813590506105328161050e565b92915050565b5f6020828403121561054d5761054c610501565b5b5f61055a84828501610524565b91505092915050565b61056c81610505565b82525050565b5f6020820190506105855f830184610563565b92915050565b5f73ffffffffffffffffffffffffffffffffffffffff82169050919050565b5f6105b48261058b565b9050919050565b6105c4816105aa565b82525050565b5f6020820190506105dd5f8301846105bb565b92915050565b5f82825260208201905092915050565b7f58544b20616d6f756e74206d7573742062652067726561746572207468616e205f8201527f3000000000000000000000000000000000000000000000000000000000000000602082015250565b5f61064d6021836105e3565b9150610658826105f3565b604082019050919050565b5f6020820190508181035f83015261067a81610641565b9050919050565b5f6060820190506106945f8301866105bb565b6106a160208301856105bb565b6106ae6040830184610563565b949350505050565b5f8115159050919050565b6106ca816106b6565b81146106d4575f80fd5b50565b5f815190506106e5816106c1565b92915050565b5f60208284031215610700576106ff610501565b5b5f61070d848285016106d7565b91505092915050565b5f6040820190506107295f8301856105bb565b6107366020830184610563565b9392505050565b7f5553445420616d6f756e74206d7573742062652067726561746572207468616e5f8201527f2030000000000000000000000000000000000000000000000000000000000000602082015250565b5f6107976022836105e3565b91506107a28261073d565b604082019050919050565b5f6020820190508181035f8301526107c48161078b565b9050919050565b7f4e487b71000000000000000000000000000000000000000000000000000000005f52601160045260245ffd5b5f61080282610505565b915061080d83610505565b9250828203905081811115610825576108246107cb565b5b92915050565b5f8160011c9050919050565b5f808291508390505b60018511156108805780860481111561085c5761085b6107cb565b5b600185161561086b5780820291505b80810290506108798561082b565b9450610840565b94509492505050565b5f826108985760019050610953565b816108a5575f9050610953565b81600181146108bb57600281146108c5576108f4565b6001915050610953565b60ff8411156108d7576108d66107cb565b5b8360020a9150848211156108ee576108ed6107cb565b5b50610953565b5060208310610133831016604e8410600b84101617156109295782820a905083811115610924576109236107cb565b5b610953565b6109368484846001610837565b9250905081840481111561094d5761094c6107cb565b5b81810290505b9392505050565b5f61096482610505565b915061096f83610505565b925061099c7fffffffffffffffffffffffffffffffffffffffffffffffffffffffffffffffff8484610889565b905092915050565b7f4e487b71000000000000000000000000000000000000000000000000000000005f52601260045260245ffd5b5f6109db82610505565b91506109e683610505565b9250826109f6576109f56109a4565b5b82820490509291505056fea2646970667358221220ce11bdea635e99553e5d61f05a18602f54afc999e7fe6ae4f934607c88128e3864736f6c63430008180033",
					"opcodes": "PUSH1 0x80 PUSH1 0x40 MSTORE CALLVALUE DUP1 ISZERO PUSH2 0xF JUMPI PUSH0 DUP1 REVERT JUMPDEST POP PUSH1 0x40 MLOAD PUSH2 0xB97 CODESIZE SUB DUP1 PUSH2 0xB97 DUP4 CODECOPY DUP2 DUP2 ADD PUSH1 0x40 MSTORE DUP2 ADD SWAP1 PUSH2 0x31 SWAP2 SWAP1 PUSH2 0x115 JUMP JUMPDEST DUP2 PUSH0 DUP1 PUSH2 0x100 EXP DUP2 SLOAD DUP2 PUSH20 0xFFFFFFFFFFFFFFFFFFFFFFFFFFFFFFFFFFFFFFFF MUL NOT AND SWAP1 DUP4 PUSH20 0xFFFFFFFFFFFFFFFFFFFFFFFFFFFFFFFFFFFFFFFF AND MUL OR SWAP1 SSTORE POP DUP1 PUSH1 0x1 PUSH0 PUSH2 0x100 EXP DUP2 SLOAD DUP2 PUSH20 0xFFFFFFFFFFFFFFFFFFFFFFFFFFFFFFFFFFFFFFFF MUL NOT AND SWAP1 DUP4 PUSH20 0xFFFFFFFFFFFFFFFFFFFFFFFFFFFFFFFFFFFFFFFF AND MUL OR SWAP1 SSTORE POP POP POP PUSH2 0x153 JUMP JUMPDEST PUSH0 DUP1 REVERT JUMPDEST PUSH0 PUSH20 0xFFFFFFFFFFFFFFFFFFFFFFFFFFFFFFFFFFFFFFFF DUP3 AND SWAP1 POP SWAP2 SWAP1 POP JUMP JUMPDEST PUSH0 PUSH2 0xE4 DUP3 PUSH2 0xBB JUMP JUMPDEST SWAP1 POP SWAP2 SWAP1 POP JUMP JUMPDEST PUSH2 0xF4 DUP2 PUSH2 0xDA JUMP JUMPDEST DUP2 EQ PUSH2 0xFE JUMPI PUSH0 DUP1 REVERT JUMPDEST POP JUMP JUMPDEST PUSH0 DUP2 MLOAD SWAP1 POP PUSH2 0x10F DUP2 PUSH2 0xEB JUMP JUMPDEST SWAP3 SWAP2 POP POP JUMP JUMPDEST PUSH0 DUP1 PUSH1 0x40 DUP4 DUP6 SUB SLT ISZERO PUSH2 0x12B JUMPI PUSH2 0x12A PUSH2 0xB7 JUMP JUMPDEST JUMPDEST PUSH0 PUSH2 0x138 DUP6 DUP3 DUP7 ADD PUSH2 0x101 JUMP JUMPDEST SWAP3 POP POP PUSH1 0x20 PUSH2 0x149 DUP6 DUP3 DUP7 ADD PUSH2 0x101 JUMP JUMPDEST SWAP2 POP POP SWAP3 POP SWAP3 SWAP1 POP JUMP JUMPDEST PUSH2 0xA37 DUP1 PUSH2 0x160 PUSH0 CODECOPY PUSH0 RETURN INVALID PUSH1 0x80 PUSH1 0x40 MSTORE CALLVALUE DUP1 ISZERO PUSH2 0xF JUMPI PUSH0 DUP1 REVERT JUMPDEST POP PUSH1 0x4 CALLDATASIZE LT PUSH2 0x60 JUMPI PUSH0 CALLDATALOAD PUSH1 0xE0 SHR DUP1 PUSH4 0x5657DC7E EQ PUSH2 0x64 JUMPI DUP1 PUSH4 0x59CEF5C1 EQ PUSH2 0x94 JUMPI DUP1 PUSH4 0x5F48AB5A EQ PUSH2 0xB2 JUMPI DUP1 PUSH4 0x6C559DD8 EQ PUSH2 0xE2 JUMPI DUP1 PUSH4 0x9AB4A445 EQ PUSH2 0xFE JUMPI DUP1 PUSH4 0xFE08CC88 EQ PUSH2 0x11C JUMPI JUMPDEST PUSH0 DUP1 REVERT JUMPDEST PUSH2 0x7E PUSH1 0x4 DUP1 CALLDATASIZE SUB DUP2 ADD SWAP1 PUSH2 0x79 SWAP2 SWAP1 PUSH2 0x538 JUMP JUMPDEST PUSH2 0x138 JUMP JUMPDEST PUSH1 0x40 MLOAD PUSH2 0x8B SWAP2 SWAP1 PUSH2 0x572 JUMP JUMPDEST PUSH1 0x40 MLOAD DUP1 SWAP2 SUB SWAP1 RETURN JUMPDEST PUSH2 0x9C PUSH2 0x14D JUMP JUMPDEST PUSH1 0x40 MLOAD PUSH2 0xA9 SWAP2 SWAP1 PUSH2 0x5CA JUMP JUMPDEST PUSH1 0x40 MLOAD DUP1 SWAP2 SUB SWAP1 RETURN JUMPDEST PUSH2 0xCC PUSH1 0x4 DUP1 CALLDATASIZE SUB DUP2 ADD SWAP1 PUSH2 0xC7 SWAP2 SWAP1 PUSH2 0x538 JUMP JUMPDEST PUSH2 0x172 JUMP JUMPDEST PUSH1 0x40 MLOAD PUSH2 0xD9 SWAP2 SWAP1 PUSH2 0x572 JUMP JUMPDEST PUSH1 0x40 MLOAD DUP1 SWAP2 SUB SWAP1 RETURN JUMPDEST PUSH2 0xFC PUSH1 0x4 DUP1 CALLDATASIZE SUB DUP2 ADD SWAP1 PUSH2 0xF7 SWAP2 SWAP1 PUSH2 0x538 JUMP JUMPDEST PUSH2 0x187 JUMP JUMPDEST STOP JUMPDEST PUSH2 0x106 PUSH2 0x313 JUMP JUMPDEST PUSH1 0x40 MLOAD PUSH2 0x113 SWAP2 SWAP1 PUSH2 0x5CA JUMP JUMPDEST PUSH1 0x40 MLOAD DUP1 SWAP2 SUB SWAP1 RETURN JUMPDEST PUSH2 0x136 PUSH1 0x4 DUP1 CALLDATASIZE SUB DUP2 ADD SWAP1 PUSH2 0x131 SWAP2 SWAP1 PUSH2 0x538 JUMP JUMPDEST PUSH2 0x336 JUMP JUMPDEST STOP JUMPDEST PUSH0 PUSH2 0x146 DUP3 PUSH1 0x3 PUSH1 0x4 PUSH2 0x4C2 JUMP JUMPDEST SWAP1 POP SWAP2 SWAP1 POP JUMP JUMPDEST PUSH1 0x1 PUSH0 SWAP1 SLOAD SWAP1 PUSH2 0x100 EXP SWAP1 DIV PUSH20 0xFFFFFFFFFFFFFFFFFFFFFFFFFFFFFFFFFFFFFFFF AND DUP2 JUMP JUMPDEST PUSH0 PUSH2 0x180 DUP3 PUSH1 0x4 PUSH1 0x3 PUSH2 0x4C2 JUMP JUMPDEST SWAP1 POP SWAP2 SWAP1 POP JUMP JUMPDEST PUSH0 DUP2 GT PUSH2 0x1C9 JUMPI PUSH1 0x40 MLOAD PUSH32 0x8C379A000000000000000000000000000000000000000000000000000000000 DUP2 MSTORE PUSH1 0x4 ADD PUSH2 0x1C0 SWAP1 PUSH2 0x663 JUMP JUMPDEST PUSH1 0x40 MLOAD DUP1 SWAP2 SUB SWAP1 REVERT JUMPDEST PUSH0 PUSH2 0x1D3 DUP3 PUSH2 0x172 JUMP JUMPDEST SWAP1 POP PUSH1 0x1 PUSH0 SWAP1 SLOAD SWAP1 PUSH2 0x100 EXP SWAP1 DIV PUSH20 0xFFFFFFFFFFFFFFFFFFFFFFFFFFFFFFFFFFFFFFFF AND PUSH20 0xFFFFFFFFFFFFFFFFFFFFFFFFFFFFFFFFFFFFFFFF AND PUSH4 0x23B872DD CALLER ADDRESS DUP6 PUSH1 0x40 MLOAD DUP5 PUSH4 0xFFFFFFFF AND PUSH1 0xE0 SHL DUP2 MSTORE PUSH1 0x4 ADD PUSH2 0x233 SWAP4 SWAP3 SWAP2 SWAP1 PUSH2 0x681 JUMP JUMPDEST PUSH1 0x20 PUSH1 0x40 MLOAD DUP1 DUP4 SUB DUP2 PUSH0 DUP8 GAS CALL ISZERO DUP1 ISZERO PUSH2 0x24F JUMPI RETURNDATASIZE PUSH0 DUP1 RETURNDATACOPY RETURNDATASIZE PUSH0 REVERT JUMPDEST POP POP POP POP PUSH1 0x40 MLOAD RETURNDATASIZE PUSH1 0x1F NOT PUSH1 0x1F DUP3 ADD AND DUP3 ADD DUP1 PUSH1 0x40 MSTORE POP DUP2 ADD SWAP1 PUSH2 0x273 SWAP2 SWAP1 PUSH2 0x6EB JUMP JUMPDEST POP PUSH0 DUP1 SLOAD SWAP1 PUSH2 0x100 EXP SWAP1 DIV PUSH20 0xFFFFFFFFFFFFFFFFFFFFFFFFFFFFFFFFFFFFFFFF AND PUSH20 0xFFFFFFFFFFFFFFFFFFFFFFFFFFFFFFFFFFFFFFFF AND PUSH4 0xA9059CBB CALLER DUP4 PUSH1 0x40 MLOAD DUP4 PUSH4 0xFFFFFFFF AND PUSH1 0xE0 SHL DUP2 MSTORE PUSH1 0x4 ADD PUSH2 0x2CE SWAP3 SWAP2 SWAP1 PUSH2 0x716 JUMP JUMPDEST PUSH1 0x20 PUSH1 0x40 MLOAD DUP1 DUP4 SUB DUP2 PUSH0 DUP8 GAS CALL ISZERO DUP1 ISZERO PUSH2 0x2EA JUMPI RETURNDATASIZE PUSH0 DUP1 RETURNDATACOPY RETURNDATASIZE PUSH0 REVERT JUMPDEST POP POP POP POP PUSH1 0x40 MLOAD RETURNDATASIZE PUSH1 0x1F NOT PUSH1 0x1F DUP3 ADD AND DUP3 ADD DUP1 PUSH1 0x40 MSTORE POP DUP2 ADD SWAP1 PUSH2 0x30E SWAP2 SWAP1 PUSH2 0x6EB JUMP JUMPDEST POP POP POP JUMP JUMPDEST PUSH0 DUP1 SLOAD SWAP1 PUSH2 0x100 EXP SWAP1 DIV PUSH20 0xFFFFFFFFFFFFFFFFFFFFFFFFFFFFFFFFFFFFFFFF AND DUP2 JUMP JUMPDEST PUSH0 DUP2 GT PUSH2 0x378 JUMPI PUSH1 0x40 MLOAD PUSH32 0x8C379A000000000000000000000000000000000000000000000000000000000 DUP2 MSTORE PUSH1 0x4 ADD PUSH2 0x36F SWAP1 PUSH2 0x7AD JUMP JUMPDEST PUSH1 0x40 MLOAD DUP1 SWAP2 SUB SWAP1 REVERT JUMPDEST PUSH0 PUSH2 0x382 DUP3 PUSH2 0x138 JUMP JUMPDEST SWAP1 POP PUSH0 DUP1 SLOAD SWAP1 PUSH2 0x100 EXP SWAP1 DIV PUSH20 0xFFFFFFFFFFFFFFFFFFFFFFFFFFFFFFFFFFFFFFFF AND PUSH20 0xFFFFFFFFFFFFFFFFFFFFFFFFFFFFFFFFFFFFFFFF AND PUSH4 0x23B872DD CALLER ADDRESS DUP6 PUSH1 0x40 MLOAD DUP5 PUSH4 0xFFFFFFFF AND PUSH1 0xE0 SHL DUP2 MSTORE PUSH1 0x4 ADD PUSH2 0x3E0 SWAP4 SWAP3 SWAP2 SWAP1 PUSH2 0x681 JUMP JUMPDEST PUSH1 0x20 PUSH1 0x40 MLOAD DUP1 DUP4 SUB DUP2 PUSH0 DUP8 GAS CALL ISZERO DUP1 ISZERO PUSH2 0x3FC JUMPI RETURNDATASIZE PUSH0 DUP1 RETURNDATACOPY RETURNDATASIZE PUSH0 REVERT JUMPDEST POP POP POP POP PUSH1 0x40 MLOAD RETURNDATASIZE PUSH1 0x1F NOT PUSH1 0x1F DUP3 ADD AND DUP3 ADD DUP1 PUSH1 0x40 MSTORE POP DUP2 ADD SWAP1 PUSH2 0x420 SWAP2 SWAP1 PUSH2 0x6EB JUMP JUMPDEST POP PUSH1 0x1 PUSH0 SWAP1 SLOAD SWAP1 PUSH2 0x100 EXP SWAP1 DIV PUSH20 0xFFFFFFFFFFFFFFFFFFFFFFFFFFFFFFFFFFFFFFFF AND PUSH20 0xFFFFFFFFFFFFFFFFFFFFFFFFFFFFFFFFFFFFFFFF AND PUSH4 0xA9059CBB CALLER DUP4 PUSH1 0x40 MLOAD DUP4 PUSH4 0xFFFFFFFF AND PUSH1 0xE0 SHL DUP2 MSTORE PUSH1 0x4 ADD PUSH2 0x47D SWAP3 SWAP2 SWAP1 PUSH2 0x716 JUMP JUMPDEST PUSH1 0x20 PUSH1 0x40 MLOAD DUP1 DUP4 SUB DUP2 PUSH0 DUP8 GAS CALL ISZERO DUP1 ISZERO PUSH2 0x499 JUMPI RETURNDATASIZE PUSH0 DUP1 RETURNDATACOPY RETURNDATASIZE PUSH0 REVERT JUMPDEST POP POP POP POP PUSH1 0x40 MLOAD RETURNDATASIZE PUSH1 0x1F NOT PUSH1 0x1F DUP3 ADD AND DUP3 ADD DUP1 PUSH1 0x40 MSTORE POP DUP2 ADD SWAP1 PUSH2 0x4BD SWAP2 SWAP1 PUSH2 0x6EB JUMP JUMPDEST POP POP POP JUMP JUMPDEST PUSH0 DUP2 DUP4 PUSH2 0x4CF SWAP2 SWAP1 PUSH2 0x7F8 JUMP JUMPDEST PUSH8 0xDE0B6B3A7640000 PUSH2 0x4E2 SWAP2 SWAP1 PUSH2 0x95A JUMP JUMPDEST DUP4 DUP6 PUSH2 0x4EE SWAP2 SWAP1 PUSH2 0x95A JUMP JUMPDEST PUSH2 0x4F8 SWAP2 SWAP1 PUSH2 0x9D1 JUMP JUMPDEST SWAP1 POP SWAP4 SWAP3 POP POP POP JUMP JUMPDEST PUSH0 DUP1 REVERT JUMPDEST PUSH0 DUP2 SWAP1 POP SWAP2 SWAP1 POP JUMP JUMPDEST PUSH2 0x517 DUP2 PUSH2 0x505 JUMP JUMPDEST DUP2 EQ PUSH2 0x521 JUMPI PUSH0 DUP1 REVERT JUMPDEST POP JUMP JUMPDEST PUSH0 DUP2 CALLDATALOAD SWAP1 POP PUSH2 0x532 DUP2 PUSH2 0x50E JUMP JUMPDEST SWAP3 SWAP2 POP POP JUMP JUMPDEST PUSH0 PUSH1 0x20 DUP3 DUP5 SUB SLT ISZERO PUSH2 0x54D JUMPI PUSH2 0x54C PUSH2 0x501 JUMP JUMPDEST JUMPDEST PUSH0 PUSH2 0x55A DUP5 DUP3 DUP6 ADD PUSH2 0x524 JUMP JUMPDEST SWAP2 POP POP SWAP3 SWAP2 POP POP JUMP JUMPDEST PUSH2 0x56C DUP2 PUSH2 0x505 JUMP JUMPDEST DUP3 MSTORE POP POP JUMP JUMPDEST PUSH0 PUSH1 0x20 DUP3 ADD SWAP1 POP PUSH2 0x585 PUSH0 DUP4 ADD DUP5 PUSH2 0x563 JUMP JUMPDEST SWAP3 SWAP2 POP POP JUMP JUMPDEST PUSH0 PUSH20 0xFFFFFFFFFFFFFFFFFFFFFFFFFFFFFFFFFFFFFFFF DUP3 AND SWAP1 POP SWAP2 SWAP1 POP JUMP JUMPDEST PUSH0 PUSH2 0x5B4 DUP3 PUSH2 0x58B JUMP JUMPDEST SWAP1 POP SWAP2 SWAP1 POP JUMP JUMPDEST PUSH2 0x5C4 DUP2 PUSH2 0x5AA JUMP JUMPDEST DUP3 MSTORE POP POP JUMP JUMPDEST PUSH0 PUSH1 0x20 DUP3 ADD SWAP1 POP PUSH2 0x5DD PUSH0 DUP4 ADD DUP5 PUSH2 0x5BB JUMP JUMPDEST SWAP3 SWAP2 POP POP JUMP JUMPDEST PUSH0 DUP3 DUP3 MSTORE PUSH1 0x20 DUP3 ADD SWAP1 POP SWAP3 SWAP2 POP POP JUMP JUMPDEST PUSH32 0x58544B20616D6F756E74206D7573742062652067726561746572207468616E20 PUSH0 DUP3 ADD MSTORE PUSH32 0x3000000000000000000000000000000000000000000000000000000000000000 PUSH1 0x20 DUP3 ADD MSTORE POP JUMP JUMPDEST PUSH0 PUSH2 0x64D PUSH1 0x21 DUP4 PUSH2 0x5E3 JUMP JUMPDEST SWAP2 POP PUSH2 0x658 DUP3 PUSH2 0x5F3 JUMP JUMPDEST PUSH1 0x40 DUP3 ADD SWAP1 POP SWAP2 SWAP1 POP JUMP JUMPDEST PUSH0 PUSH1 0x20 DUP3 ADD SWAP1 POP DUP2 DUP2 SUB PUSH0 DUP4 ADD MSTORE PUSH2 0x67A DUP2 PUSH2 0x641 JUMP JUMPDEST SWAP1 POP SWAP2 SWAP1 POP JUMP JUMPDEST PUSH0 PUSH1 0x60 DUP3 ADD SWAP1 POP PUSH2 0x694 PUSH0 DUP4 ADD DUP7 PUSH2 0x5BB JUMP JUMPDEST PUSH2 0x6A1 PUSH1 0x20 DUP4 ADD DUP6 PUSH2 0x5BB JUMP JUMPDEST PUSH2 0x6AE PUSH1 0x40 DUP4 ADD DUP5 PUSH2 0x563 JUMP JUMPDEST SWAP5 SWAP4 POP POP POP POP JUMP JUMPDEST PUSH0 DUP2 ISZERO ISZERO SWAP1 POP SWAP2 SWAP1 POP JUMP JUMPDEST PUSH2 0x6CA DUP2 PUSH2 0x6B6 JUMP JUMPDEST DUP2 EQ PUSH2 0x6D4 JUMPI PUSH0 DUP1 REVERT JUMPDEST POP JUMP JUMPDEST PUSH0 DUP2 MLOAD SWAP1 POP PUSH2 0x6E5 DUP2 PUSH2 0x6C1 JUMP JUMPDEST SWAP3 SWAP2 POP POP JUMP JUMPDEST PUSH0 PUSH1 0x20 DUP3 DUP5 SUB SLT ISZERO PUSH2 0x700 JUMPI PUSH2 0x6FF PUSH2 0x501 JUMP JUMPDEST JUMPDEST PUSH0 PUSH2 0x70D DUP5 DUP3 DUP6 ADD PUSH2 0x6D7 JUMP JUMPDEST SWAP2 POP POP SWAP3 SWAP2 POP POP JUMP JUMPDEST PUSH0 PUSH1 0x40 DUP3 ADD SWAP1 POP PUSH2 0x729 PUSH0 DUP4 ADD DUP6 PUSH2 0x5BB JUMP JUMPDEST PUSH2 0x736 PUSH1 0x20 DUP4 ADD DUP5 PUSH2 0x563 JUMP JUMPDEST SWAP4 SWAP3 POP POP POP JUMP JUMPDEST PUSH32 0x5553445420616D6F756E74206D7573742062652067726561746572207468616E PUSH0 DUP3 ADD MSTORE PUSH32 0x2030000000000000000000000000000000000000000000000000000000000000 PUSH1 0x20 DUP3 ADD MSTORE POP JUMP JUMPDEST PUSH0 PUSH2 0x797 PUSH1 0x22 DUP4 PUSH2 0x5E3 JUMP JUMPDEST SWAP2 POP PUSH2 0x7A2 DUP3 PUSH2 0x73D JUMP JUMPDEST PUSH1 0x40 DUP3 ADD SWAP1 POP SWAP2 SWAP1 POP JUMP JUMPDEST PUSH0 PUSH1 0x20 DUP3 ADD SWAP1 POP DUP2 DUP2 SUB PUSH0 DUP4 ADD MSTORE PUSH2 0x7C4 DUP2 PUSH2 0x78B JUMP JUMPDEST SWAP1 POP SWAP2 SWAP1 POP JUMP JUMPDEST PUSH32 0x4E487B7100000000000000000000000000000000000000000000000000000000 PUSH0 MSTORE PUSH1 0x11 PUSH1 0x4 MSTORE PUSH1 0x24 PUSH0 REVERT JUMPDEST PUSH0 PUSH2 0x802 DUP3 PUSH2 0x505 JUMP JUMPDEST SWAP2 POP PUSH2 0x80D DUP4 PUSH2 0x505 JUMP JUMPDEST SWAP3 POP DUP3 DUP3 SUB SWAP1 POP DUP2 DUP2 GT ISZERO PUSH2 0x825 JUMPI PUSH2 0x824 PUSH2 0x7CB JUMP JUMPDEST JUMPDEST SWAP3 SWAP2 POP POP JUMP JUMPDEST PUSH0 DUP2 PUSH1 0x1 SHR SWAP1 POP SWAP2 SWAP1 POP JUMP JUMPDEST PUSH0 DUP1 DUP3 SWAP2 POP DUP4 SWAP1 POP JUMPDEST PUSH1 0x1 DUP6 GT ISZERO PUSH2 0x880 JUMPI DUP1 DUP7 DIV DUP2 GT ISZERO PUSH2 0x85C JUMPI PUSH2 0x85B PUSH2 0x7CB JUMP JUMPDEST JUMPDEST PUSH1 0x1 DUP6 AND ISZERO PUSH2 0x86B JUMPI DUP1 DUP3 MUL SWAP2 POP JUMPDEST DUP1 DUP2 MUL SWAP1 POP PUSH2 0x879 DUP6 PUSH2 0x82B JUMP JUMPDEST SWAP5 POP PUSH2 0x840 JUMP JUMPDEST SWAP5 POP SWAP5 SWAP3 POP POP POP JUMP JUMPDEST PUSH0 DUP3 PUSH2 0x898 JUMPI PUSH1 0x1 SWAP1 POP PUSH2 0x953 JUMP JUMPDEST DUP2 PUSH2 0x8A5 JUMPI PUSH0 SWAP1 POP PUSH2 0x953 JUMP JUMPDEST DUP2 PUSH1 0x1 DUP2 EQ PUSH2 0x8BB JUMPI PUSH1 0x2 DUP2 EQ PUSH2 0x8C5 JUMPI PUSH2 0x8F4 JUMP JUMPDEST PUSH1 0x1 SWAP2 POP POP PUSH2 0x953 JUMP JUMPDEST PUSH1 0xFF DUP5 GT ISZERO PUSH2 0x8D7 JUMPI PUSH2 0x8D6 PUSH2 0x7CB JUMP JUMPDEST JUMPDEST DUP4 PUSH1 0x2 EXP SWAP2 POP DUP5 DUP3 GT ISZERO PUSH2 0x8EE JUMPI PUSH2 0x8ED PUSH2 0x7CB JUMP JUMPDEST JUMPDEST POP PUSH2 0x953 JUMP JUMPDEST POP PUSH1 0x20 DUP4 LT PUSH2 0x133 DUP4 LT AND PUSH1 0x4E DUP5 LT PUSH1 0xB DUP5 LT AND OR ISZERO PUSH2 0x929 JUMPI DUP3 DUP3 EXP SWAP1 POP DUP4 DUP2 GT ISZERO PUSH2 0x924 JUMPI PUSH2 0x923 PUSH2 0x7CB JUMP JUMPDEST JUMPDEST PUSH2 0x953 JUMP JUMPDEST PUSH2 0x936 DUP5 DUP5 DUP5 PUSH1 0x1 PUSH2 0x837 JUMP JUMPDEST SWAP3 POP SWAP1 POP DUP2 DUP5 DIV DUP2 GT ISZERO PUSH2 0x94D JUMPI PUSH2 0x94C PUSH2 0x7CB JUMP JUMPDEST JUMPDEST DUP2 DUP2 MUL SWAP1 POP JUMPDEST SWAP4 SWAP3 POP POP POP JUMP JUMPDEST PUSH0 PUSH2 0x964 DUP3 PUSH2 0x505 JUMP JUMPDEST SWAP2 POP PUSH2 0x96F DUP4 PUSH2 0x505 JUMP JUMPDEST SWAP3 POP PUSH2 0x99C PUSH32 0xFFFFFFFFFFFFFFFFFFFFFFFFFFFFFFFFFFFFFFFFFFFFFFFFFFFFFFFFFFFFFFFF DUP5 DUP5 PUSH2 0x889 JUMP JUMPDEST SWAP1 POP SWAP3 SWAP2 POP POP JUMP JUMPDEST PUSH32 0x4E487B7100000000000000000000000000000000000000000000000000000000 PUSH0 MSTORE PUSH1 0x12 PUSH1 0x4 MSTORE PUSH1 0x24 PUSH0 REVERT JUMPDEST PUSH0 PUSH2 0x9DB DUP3 PUSH2 0x505 JUMP JUMPDEST SWAP2 POP PUSH2 0x9E6 DUP4 PUSH2 0x505 JUMP JUMPDEST SWAP3 POP DUP3 PUSH2 0x9F6 JUMPI PUSH2 0x9F5 PUSH2 0x9A4 JUMP JUMPDEST JUMPDEST DUP3 DUP3 DIV SWAP1 POP SWAP3 SWAP2 POP POP JUMP INVALID LOG2 PUSH5 0x6970667358 0x22 SLT KECCAK256 0xCE GT 0xBD 0xEA PUSH4 0x5E99553E TSTORE PUSH2 0xF05A XOR PUSH1 0x2F SLOAD 0xAF 0xC9 SWAP10 0xE7 INVALID PUSH11 0xE4F934607C88128E386473 PUSH16 0x6C634300081800330000000000000000 "
				},
				"gasEstimates": {
					"creation": {
						"codeDepositCost": "523000",
						"executionCost": "infinite",
						"totalCost": "infinite"
					},
					"external": {
						"calculateUSDTAmount(uint256)": "infinite",
						"calculateXTKAmount(uint256)": "infinite",
						"swapUSDTtoXTK(uint256)": "infinite",
						"swapXTKtoUSDT(uint256)": "infinite",
						"usdtAddress()": "2571",
						"xtkAddress()": "2508"
					},
					"internal": {
						"pow(uint256,uint256,uint256)": "infinite"
					}
				},
				"methodIdentifiers": {
					"calculateUSDTAmount(uint256)": "5f48ab5a",
					"calculateXTKAmount(uint256)": "5657dc7e",
					"swapUSDTtoXTK(uint256)": "fe08cc88",
					"swapXTKtoUSDT(uint256)": "6c559dd8",
					"usdtAddress()": "9ab4a445",
					"xtkAddress()": "59cef5c1"
				}
			},
			"storageLayout": {
				"storage": [
					{
						"astId": 3464,
						"contract": "contracts/TokenSwap.sol:TokenSwap",
						"label": "usdtAddress",
						"offset": 0,
						"slot": "0",
						"type": "t_address"
					},
					{
						"astId": 3466,
						"contract": "contracts/TokenSwap.sol:TokenSwap",
						"label": "xtkAddress",
						"offset": 0,
						"slot": "1",
						"type": "t_address"
					}
				],
				"types": {
					"t_address": {
						"encoding": "inplace",
						"label": "address",
						"numberOfBytes": "20"
					}
				}
			},
			"userdoc": {
				"kind": "user",
				"methods": {},
				"version": 1
			}
		}
	}
}